:100000000C942A000C9447000C9447000C94470071
:100010000C9450140C941D140C9447000C94EA1387
:100020000C9447000C94B7130C9484130C94511344
:100030000C9447000C9447000C9447000C94470024
:100040000C9447000C9447000C9447000C94470014
:100050000C94470011241FBECFE5D8E0DEBFCDBF12
:1000600012E0A0E6B0E0E0E7FCE302C005900D92EC
:10007000A634B107D9F712E0A6E4B2E001C01D92A0
:10008000AD34B107E1F70E94C80C0C94361E0C94F5
:100090000000EF92FF920F931F937B018C0120E0F1
:1000A00030E040E05FE40E94490388238CF0C801FF
:1000B000B70120E030E040E05FE40E94C1010E940F
:1000C000A9039B01AC01205030404040504806C07D
:1000D000C801B7010E94A9039B01AC01B901CA0183
:1000E0001F910F91FF90EF900895A0E0B0E0EBE733
:1000F000F0E00C94BA1DDC012B01FA019C919230C6
:1001000008F439C1EB018881823008F433C194309E
:1001100069F4843009F02FC111969C91119789815F
:10012000981709F428C1AFE2B2E025C1843009F480
:1001300021C18230A9F4923009F01DC19A01AD01AC
:1001400088E0EA010990AE01E90109929E0181501F
:10015000C1F7E201898111969C918923818308C1AD
:10016000923009F407C112962D903C901397EB0141
:100170008A819B811496AD90BD90CD90DC901797AD
:10018000EC80FD800E811F819101281B390BB90184
:1001900037FF04C066277727621B730B6032710537
:1001A0000CF061C0121613066CF537014801062EDB
:1001B00004C096948794779467940A94D2F721E0C8
:1001C00030E040E050E004C0220F331F441F551FB1
:1001D0006A95D2F721503040404050402E213F21B7
:1001E00040235123211531054105510521F021E01E
:1001F00030E040E050E079018A01E628F72808293C
:1002000019293CC0232BD1F1260E371E350146019A
:10021000062E04C096948794779467940A94D2F734
:1002200021E030E040E050E004C0220F331F441FC3
:10023000551F6A95D2F721503040404050402A2146
:100240003B214C215D21211531054105510521F04E
:1002500021E030E040E050E059016A01A628B728CB
:10026000C828D9280BC0821593052CF01C01AA249C
:10027000BB24650103C0EE24FF24870111969C91E5
:10028000D20111968C91981709F445C0992339F041
:10029000A80197012A193B094C095D0906C0A6016E
:1002A00095012E193F09400B510B57FD08C01182D3
:1002B0003382228224833583468357831DC081E0A5
:1002C00081833382228288279927DC01821B930B4A
:1002D000A40BB50B84839583A683B7830DC0220F2F
:1002E000331F441F551F24833583468357838281E0
:1002F000938101979383828324813581468157813D
:10030000DA01C9010197A109B1098F5F9F4FAF4F72
:10031000BF4328F30BC0918333822282EA0CFB1C7B
:100320000C1D1D1DE482F5820683178383E0808304
:10033000248135814681578157FF1AC0C901AA27F8
:1003400097FDA095BA2F81709070A070B0705695EF
:10035000479537952795822B932BA42BB52B848318
:100360009583A683B7838281938101969383828349
:10037000DF0101C0D201CD01CDB7DEB7E2E10C94BF
:10038000D61DA0E2B0E0E7ECF1E00C94C61D698355
:100390007A838B839C832D833E834F835887E9E048
:1003A000EE2EF12CEC0EFD1ECE010196B7010E943F
:1003B000D2048E010F5E1F4FCE010596B8010E9438
:1003C000D2048A8991E089278A8BC701B801AE01DE
:1003D000475E5F4F0E9475000E94FD03A096E6E015
:1003E0000C94E21DA0E2B0E0E8EFF1E00C94C61D31
:1003F00069837A838B839C832D833E834F835887C5
:10040000F9E0EF2EF12CEC0EFD1ECE010196B701A6
:100410000E94D2048E010F5E1F4FCE010596B801D7
:100420000E94D204C701B801AE01475E5F4F0E942F
:1004300075000E94FD03A096E6E00C94E21DA0E288
:10044000B0E0E5E2F2E00C94BA1D69837A838B8315
:100450009C832D833E834F835887CE010196BE0136
:10046000675F7F4F0E94D204CE010596BE016F5E8A
:100470007F4F0E94D2049985923088F0898982301A
:10048000C8F0943019F4823051F404C0843029F457
:10049000923081F48FE292E0C6C0923049F420E0BD
:1004A0009A858A89981321E02A87CE010996BBC0D4
:1004B000823049F420E09A858A89981321E02A8BBA
:1004C000CE014196B0C02D843E844F8458886D88FB
:1004D0007E888F88988CEE24FF248701AA24BB2471
:1004E000650140E050E060E070E0E0E0F0E0C10174
:1004F00081709070892BE9F0E60CF71C081D191D1E
:100500009A01AB012A0D3B1D4C1D5D1D80E090E062
:10051000A0E0B0E0E614F7040805190520F481E036
:1005200090E0A0E0B0E0BA01A901480F591F6A1F8E
:100530007B1FAA0CBB1CCC1CDD1C97FE08C081E0F5
:1005400090E0A0E0B0E0A82AB92ACA2ADB2A3196B6
:10055000E032F10549F0660C771C881C991C569412
:10056000479437942794C3CFFA85EA892B893C892D
:100570008B859C85280F391F2E5F3F4F17C0CA01FE
:1005800081709070892B61F016950795F794E79428
:1005900080E090E0A0E0B0E8E82AF92A0A2B1B2BC3
:1005A00076956795579547952F5F3F4F77FDE7CF36
:1005B0000CC0440F551F661F771F17FD4160EE0CDE
:1005C000FF1C001F111F21503040403090E05907A0
:1005D00090E0690790E4790760F32B8F3C8FDB0193
:1005E000CA018F779070A070B07080349105A1051A
:1005F000B10561F447FD0AC0E114F10401051105DC
:1006000029F0405C5F4F6F4F7F4F40781A8EFE1786
:1006100011F081E08A8F4D8F5E8F6F8F78A383E01A
:10062000898FCE0149960E94FD03A096E2E10C94C9
:10063000D61DA8E1B0E0EFE1F3E00C94C61D69839C
:100640007A838B839C832D833E834F83588789E0F5
:10065000E82EF12CEC0EFD1ECE010196B7010E9492
:10066000D2048E010F5E1F4FCE010596B8010E9485
:10067000D2048985823040F08989823028F0C70110
:10068000B8010E944A0501C08FEF6896E6E00C941D
:10069000E21DA8E1B0E0EFE4F3E00C94C61D69832D
:1006A0007A838B839C832D833E834F83588789E095
:1006B000E82EF12CEC0EFD1ECE010196B7010E9432
:1006C000D2048E010F5E1F4FCE010596B8010E9425
:1006D000D2048985823040F08989823028F0C701B0
:1006E000B8010E944A0501C08FEF6896E6E00C94BD
:1006F000E21DA8E1B0E0EFE7F3E00C94C61D6983CA
:100700007A838B839C832D833E834F83588789E034
:10071000E82EF12CEC0EFD1ECE010196B7010E94D1
:10072000D2048E010F5E1F4FCE010596B8010E94C4
:10073000D2048985823040F08989823028F0C7014F
:10074000B8010E944A0501C081E06896E6E00C9479
:10075000E21DACE0B0E0EFEAF3E00C94CA1D69835F
:100760007A838B839C83CE010196BE016B5F7F4FA2
:100770000E94D2048D81823061F1823050F1843048
:1007800021F48E81882351F12EC02F81388537FDC9
:1007900020C06E812F3131051CF06623F9F023C093
:1007A0008EE190E0821B930B29853A854B855C8511
:1007B00004C056954795379527958A95D2F76623B5
:1007C000B1F050954095309521953F4F4F4F5F4F79
:1007D0000EC020E030E040E050E009C02FEF3FEFD6
:1007E0004FEF5FE704C020E030E040E050E8B9019F
:1007F000CA012C96E2E00C94E61DDF92EF92FF9284
:100800000F931F93FC01E480F58006811781D1804E
:100810008081823048F480E090E0A0E1B0E0E82AF6
:10082000F92A0A2B1B2BA5C0843009F49FC0823003
:1008300021F4EE24FF24870105C0E114F104010531
:10084000110519F4E0E0F0E096C0628173819FEF3A
:10085000623879070CF05BC022E83FEF261B370BAC
:100860002A3131052CF020E030E040E050E02AC091
:10087000B801A701022E04C0769567955795479554
:100880000A94D2F781E090E0A0E0B0E004C0880FC5
:10089000991FAA1FBB1F2A95D2F70197A109B10979
:1008A0008E219F21A023B1230097A105B10521F03E
:1008B00081E090E0A0E0B0E09A01AB01282B392B59
:1008C0004A2B5B2BDA01C9018F779070A070B07052
:1008D00080349105A105B10539F427FF09C0205CDA
:1008E0003F4F4F4F5F4F04C0215C3F4F4F4F5F4F13
:1008F000E0E0F0E02030A0E03A07A0E04A07A0E402
:100900005A0710F0E1E0F0E079018A0127C0603871
:10091000710564F5FB01E158FF4FD801C7018F77DE
:100920009070A070B07080349105A105B10539F4C4
:10093000E7FE0DC080E490E0A0E0B0E004C08FE3EB
:1009400090E0A0E0B0E0E80EF91E0A1F1B1F17FFA1
:1009500005C016950795F794E794319687E01695AC
:100960000795F794E7948A95D1F705C0EE24FF2404
:100970008701EFEFF0E06E2F679566276795902F60
:100980009F77D794DD24D7948E2F8695492F462BB9
:10099000582F5D29B701CA011F910F91FF90EF9069
:1009A000DF900895FC01DB01408151812281622F9B
:1009B0006F7770E0221F2227221F9381892F880FD3
:1009C000822B282F30E0991F9927991F11969C930D
:1009D000119721153105A9F54115510561057105DD
:1009E00011F482E037C082E89FEF13969C938E93B8
:1009F00012979A01AB0167E0220F331F441F551F66
:100A00006A95D1F783E08C930DC0220F331F441FEA
:100A1000551F12968D919C911397019713969C9355
:100A20008E931297203080E0380780E0480780E4FA
:100A3000580758F314962D933D934D935C93179755
:100A400008952F3F310579F4411551056105710570
:100A500019F484E08C93089564FF03C081E08C93C3
:100A600012C01C9210C02F57304013963C932E9307
:100A7000129783E08C9387E0440F551F661F771F02
:100A80008A95D1F7706414964D935D936D937C9322
:100A9000179708951F93DC01FB019C91923008F495
:100AA00047C08081823008F443C0943051F41196DD
:100AB0001C91843099F58181682F70E0611B710968
:100AC0003FC0843021F0923031F48230B9F181811D
:100AD000882389F12DC011961C9111978230F1F075
:100AE00081811817D9F412962D913C911397828128
:100AF00093818217930794F028173907BCF0149656
:100B00008D919D910D90BC91A02D248135814681C0
:100B10005781281739074A075B0718F4112341F05A
:100B20000AC082179307A407B50740F4112319F0F0
:100B300061E070E005C06FEF7FEF02C060E070E041
:100B4000CB011F910895DF93CF93CDB7DEB781E03E
:100B500080934602CF91DF910895DF93CF93CDB775
:100B6000DEB72C970FB6F894DEBF0FBECDBF0E9444
:100B700053160E947E1BCE01019699878887EEE36B
:100B8000F2E0FB87EA87F7E0FC87EA85FB850080D7
:100B90008A859B8501969B878A87E885F9850082EF
:100BA000888599850196998788879C8591509C872F
:100BB000EC85EE2351F7CE0101960E94831483EA5F
:100BC00095E061E00E94181387E392E00E947C1197
:100BD0002C960FB6F894DEBF0FBECDBFCF91DF913C
:100BE0000895DF93CF93CDB7DEB70E94741B20E644
:100BF00030E080E060E0A9010E94381B22E730E08D
:100C000081E060E0A9010E94381B23E830E082E027
:100C100060E0A9010E94381B25E930E083E060E034
:100C2000A9010E94381BCF91DF910895DF93CF93E4
:100C3000CDB7DEB72F970FB6F894DEBF0FBECDBF8E
:100C40008F878F850E94C11580E090E0A0E2B1E41B
:100C50008B879C87AD87BE876B857C858D859E85C0
:100C600020E030E04AEF54E40E941F02DC01CB0197
:100C70008F839887A987BA876F81788589859A85B8
:100C800020E030E040E85FE30E94790388232CF401
:100C900081E090E09E838D833FC06F817885898558
:100CA0009A8520E03FEF4FE757E40E94190318169A
:100CB0004CF56B857C858D859E8520E030E040E29B
:100CC00051E40E941F02DC01CB01BC01CD010E9456
:100CD0004900DC01CB019E838D830FC088EC90E03E
:100CE0009C838B838B819C810197F1F79C838B8301
:100CF0008D819E8101979E838D838D819E8100973A
:100D000069F714C06F81788589859A850E944900AA
:100D1000DC01CB019E838D838D819E819A838983A3
:100D200089819A810197F1F79A8389832F960FB66B
:100D3000F894DEBF0FBECDBFCF91DF910895DF9352
:100D4000CF93CDB7DEB768970FB6F894DEBF0FBE6E
:100D5000CDBF9D8B8C8B7F8B6E8B1B8A1A8A198AD9
:100D60001F860CC08F85282F30E08C899D89FC015F
:100D7000E20FF31F10828F858F5F8F878F85803101
:100D800088F3A8C00E94D815888B88898F3F59F1B5
:100D90008989282F30E08C899D89FC01E20FF31F9F
:100DA0008889808389898F5F898B8889833261F400
:100DB0008989282F30E08C899D89FC01E20FF31F7F
:100DC000108281E0888F9EC089898F3060F0898988
:100DD000282F30E08C899D89FC01E20FF31F1082DF
:100DE00081E0888F8FC080E090E0A0E2B1E48B8743
:100DF0009C87AD87BE876B857C858D859E8520E031
:100E000030E04AEF54E40E941F02DC01CB018F83E3
:100E10009887A987BA876F81788589859A8520E028
:100E200030E040E85FE30E94790388232CF481E0FE
:100E300090E09E838D833FC06F81788589859A85F8
:100E400020E03FEF4FE757E40E94190318164CF5D6
:100E50006B857C858D859E8520E030E040E251E405
:100E60000E941F02DC01CB01BC01CD010E944900A0
:100E7000DC01CB019E838D830FC088EC90E09C83C6
:100E80008B838B819C810197F1F79C838B838D8170
:100E90009E8101979E838D838D819E81009769F746
:100EA00014C06F81788589859A850E944900DC018C
:100EB000CB019E838D838D819E819A8389838981D5
:100EC0009A810197F1F79A8389838A899B890A9687
:100ED0009B8B8A8B2A893B898E899F8928173907A2
:100EE00008F450CF8989882361F08989282F30E060
:100EF0008C899D89FC01E20FF31F108281E0888FAD
:100F000001C0188E888D68960FB6F894DEBF0FBEAC
:100F1000CDBFCF91DF910895DF93CF93CDB7DEB7EB
:100F20002E970FB6F894DEBF0FBECDBF81E00E94B2
:100F3000C1150E94741B27EA30E080E060E0A9013F
:100F40000E94381B28EB30E081E060E0A9010E949C
:100F5000381B29EC30E082E060E0A9010E94381BD8
:100F60002AED30E083E060E0A9010E94381B80E0B8
:100F700090E8ABE3B5E48B879C87AD87BE876B8534
:100F80007C858D859E8520E030E04AEF54E40E9408
:100F90001F02DC01CB018F839887A987BA876F81F5
:100FA000788589859A8520E030E040E85FE30E94FB
:100FB000790388232CF481E090E09E838D833FC0E9
:100FC0006F81788589859A8520E03FEF4FE757E468
:100FD0000E94190318164CF56B857C858D859E85BE
:100FE00020E030E040E251E40E941F02DC01CB012E
:100FF000BC01CD010E944900DC01CB019E838D83A1
:101000000FC088EC90E09C838B838B819C8101973F
:10101000F1F79C838B838D819E8101979E838D83C5
:101020008D819E81009769F714C06F8178858985CD
:101030009A850E944900DC01CB019E838D838D81BE
:101040009E819A83898389819A810197F1F79A8396
:1010500089832E960FB6F894DEBF0FBECDBFCF9119
:10106000DF910895DF93CF93CDB7DEB7A7970FB683
:10107000F894DEBF0FBECDBF82E00E94C1150E9472
:10108000D8158AA30E94A70C99A388A30E94D815FB
:101090008F8F8F8D81708E8F8F8D869581708D8FC4
:1010A0000E94741B2BEE30E080E060E0A9010E94FA
:1010B000381B8AA1882F90E00E94511B82EF90E09C
:1010C0000E94CD1A2BEF30E081E060E0A9010E9480
:1010D000381B88A199A10E94511B82E091E00E94D7
:1010E000CD1A2BE031E082E060E0A9010E94381BBC
:1010F0008E8D882329F08FE091E09FA38EA304C0FA
:1011000087E191E09FA38EA38EA19FA10E94CD1A9B
:101110002FE131E083E060E0A9010E94381B8D8D52
:10112000882329F08FE091E09DA38CA304C087E180
:1011300091E09DA38CA38CA19DA10E94CD1A80E07B
:1011400090E8ABE3B5E4898F9A8FAB8FBC8F698D44
:101150007A8D8B8D9C8D20E030E04AEF54E40E9424
:101160001F02DC01CB018D8B9E8BAF8BB88F6D89FD
:101170007E898F89988D20E030E040E85FE30E940F
:10118000790388232CF481E090E09C8B8B8B3FC00B
:101190006D897E898F89988D20E03FEF4FE757E476
:1011A0000E94190318164CF5698D7A8D8B8D9C8DD4
:1011B00020E030E040E251E40E941F02DC01CB015C
:1011C000BC01CD010E944900DC01CB019C8B8B8BC3
:1011D0000FC088EC90E09A8B898B89899A89019756
:1011E000F1F79A8B898B8B899C8901979C8B8B8BD0
:1011F0008B899C89009769F714C06D897E898F89D6
:10120000988D0E944900DC01CB019C8B8B8B8B89D4
:101210009C89988B8F878F8598890197F1F7988B98
:101220008F870E94741B23E231E080E060E0A90117
:101230000E94381B24E331E081E060E0A9010E94B4
:10124000381B25E431E082E060E0A9010E94381BF0
:101250000E94AC1B8BA380E090E0A8E4B2E48B87F3
:101260009C87AD87BE876B857C858D859E8520E0BC
:1012700030E04AEF54E40E941F02DC01CB018F836F
:101280009887A987BA876F81788589859A8520E0B4
:1012900030E040E85FE30E94790388232CF481E08A
:1012A00090E09E838D833FC06F81788589859A8584
:1012B00020E03FEF4FE757E40E94190318164CF562
:1012C0006B857C858D859E8520E030E040E251E491
:1012D0000E941F02DC01CB01BC01CD010E9449002C
:1012E000DC01CB019E838D830FC088EC90E09C8352
:1012F0008B838B819C810197F1F79C838B838D81FC
:101300009E8101979E838D838D819E81009769F7D1
:1013100014C06F81788589859A850E944900DC0117
:10132000CB019E838D838D819E819A838983898160
:101330009A810197F1F79A8389838BA1823309F40B
:101340009BCEA7960FB6F894DEBF0FBECDBFCF9150
:10135000DF910895DF93CF93CDB7DEB7EC970FB64B
:10136000F894DEBF0FBECDBF83E00E94C1150E947E
:10137000741B26E531E080E060E0A9010E94381B83
:1013800081E08AAF19AEA7C081E089AF8AAD843011
:1013900008F47DC080E090E8ABE3B5E48DAB9EAB94
:1013A000AFABB8AF6DA97EA98FA998AD20E030E0B2
:1013B0004AEF54E40E941F02DC01CB0189AB9AABD7
:1013C000ABABBCAB69A97AA98BA99CA920E030E0A2
:1013D00040E85FE30E94790388232CF481E090E0E9
:1013E00098AB8FA73FC069A97AA98BA99CA920E0D7
:1013F0003FEF4FE757E40E94190318164CF56DA90B
:101400007EA98FA998AD20E030E040E251E40E942F
:101410001F02DC01CB01BC01CD010E944900DC01AF
:10142000CB0198AB8FA70FC088EC90E09EA78DA74B
:101430008DA59EA50197F1F79EA78DA78FA598A9C9
:10144000019798AB8FA78FA598A9009769F714C04B
:1014500069A97AA98BA99CA90E944900DC01CB014A
:1014600098AB8FA78FA598A99CA78BA78BA59CA5A8
:101470000197F1F79CA78BA70E94741B26E531E02A
:1014800080E060E0A9010E94381B81E08AAF8AAD4C
:1014900060E00E94F61A8BAD813029F487E691E076
:1014A0000E94CD1A15C08BAD823029F488E791E0F7
:1014B0000E94CD1A0DC089E891E00E94CD1A8BAD33
:1014C000882F90E00E94511B81E991E00E94CD1A83
:1014D0008AAD8F5F8AAF0E94D8158BAF8BAD8F3FDF
:1014E00009F052CF89AD882341F42AE931E081E047
:1014F00060E0A9010E94381B80C08AAD843008F4E6
:1015000075C080E090E8ABE3B5E48FA398A7A9A7E6
:10151000BAA76FA178A589A59AA520E030E04AEF87
:1015200054E40E941F02DC01CB018BA39CA3ADA35A
:10153000BEA36BA17CA18DA19EA120E030E040E87C
:101540005FE30E94790388232CF481E090E09AA362
:1015500089A33FC06BA17CA18DA19EA120E03FEF9C
:101560004FE757E40E94190318164CF56FA178A5B0
:1015700089A59AA520E030E040E251E40E941F02D4
:10158000DC01CB01BC01CD010E944900DC01CB0193
:101590009AA389A30FC088EC90E098A38F8F8F8DBA
:1015A00098A10197F1F798A38F8F89A19AA101972C
:1015B0009AA389A389A19AA1009769F714C06BA186
:1015C0007CA18DA19EA10E944900DC01CB019AA3C0
:1015D00089A389A19AA19E8F8D8F8D8D9E8D019754
:1015E000F1F79E8F8D8F0E94741B1AAE2BEA31E0AB
:1015F0008AAD60E0A9010E94381B80E090E8ABE36F
:10160000B5E4898F9A8FAB8FBC8F698D7A8D8B8D66
:101610009C8D20E030E04AEF54E40E941F02DC0180
:10162000CB018D8B9E8BAF8BB88F6D897E898F8917
:10163000988D20E030E040E85FE30E947903882342
:101640002CF481E090E09C8B8B8B3FC06D897E8970
:101650008F89988D20E03FEF4FE757E40E941903F0
:1016600018164CF5698D7A8D8B8D9C8D20E030E0BD
:1016700040E251E40E941F02DC01CB01BC01CD011C
:101680000E944900DC01CB019C8B8B8B0FC088EC46
:1016900090E09A8B898B89899A890197F1F79A8BC7
:1016A000898B8B899C8901979C8B8B8B8B899C89DF
:1016B000009769F714C06D897E898F89988D0E9483
:1016C0004900DC01CB019C8B8B8B8B899C89988B8F
:1016D0008F878F8598890197F1F7988B8F870E9464
:1016E000741B23E231E080E060E0A9010E94381B16
:1016F0002CEB31E081E060E0A9010E94381B25E479
:1017000031E082E060E0A9010E94381B0E94AC1B1E
:101710008CAF80E090E0A8E4B2E48B879C87AD8733
:10172000BE876B857C858D859E8520E030E04AEF05
:1017300054E40E941F02DC01CB018F839887A987A4
:10174000BA876F81788589859A8520E030E040E806
:101750005FE30E94790388232CF481E090E09E836C
:101760008D833FC06F81788589859A8520E03FEF22
:101770004FE757E40E94190318164CF56B857C85DA
:101780008D859E8520E030E040E251E40E941F02FA
:10179000DC01CB01BC01CD010E944900DC01CB0181
:1017A0009E838D830FC088EC90E09C838B838B811C
:1017B0009C810197F1F79C838B838D819E8101979A
:1017C0009E838D838D819E81009769F714C06F8100
:1017D000788589859A850E944900DC01CB019E832A
:1017E0008D838D819E819A83898389819A810197D6
:1017F000F1F79A8389838CAD833309F4B5CDEC96E8
:101800000FB6F894DEBF0FBECDBFCF91DF91089524
:10181000DF93CF93CDB7DEB72E970FB6F894DEBF28
:101820000FBECDBF84E00E94C1150E94741B2DEC39
:1018300031E080E060E0A9010E94381B29EC30E033
:1018400081E060E0A9010E94381B2EED31E082E0CA
:1018500060E0A9010E94381B80E090E8ABE3B5E4AA
:101860008B879C87AD87BE876B857C858D859E85A4
:1018700020E030E04AEF54E40E941F02DC01CB017B
:101880008F839887A987BA876F81788589859A859C
:1018900020E030E040E85FE30E94790388232CF4E5
:1018A00081E090E09E838D833FC06F81788589853C
:1018B0009A8520E03FEF4FE757E40E94190318167E
:1018C0004CF56B857C858D859E8520E030E040E27F
:1018D00051E40E941F02DC01CB01BC01CD010E943A
:1018E0004900DC01CB019E838D830FC088EC90E022
:1018F0009C838B838B819C810197F1F79C838B83E5
:101900008D819E8101979E838D838D819E8100971D
:1019100069F714C06F81788589859A850E9449008E
:10192000DC01CB019E838D838D819E819A83898387
:1019300089819A810197F1F79A8389832E960FB650
:10194000F894DEBF0FBECDBFCF91DF910895DF9336
:10195000CF9300D000D0CDB7DEB70E94D815882F26
:1019600090E09C838B830E94D815882F90E09A8307
:1019700089838B819C81382F222789819A81822BB0
:10198000932B0F900F900F900F90CF91DF910895B0
:10199000DF93CF93CDB7DEB7AD970FB6F894DEBF28
:1019A0000FBECDBF1BA60E94AD050E94F105789425
:1019B0000E94741B2FEE31E080E060E0A9010E94DC
:1019C000381B20E032E081E060E0A9010E94381B72
:1019D00021E132E082E060E0A9010E94381B80E052
:1019E00090E8ABE3B5E48FA398A7A9A7BAA76FA126
:1019F00078A589A59AA520E030E04AEF54E40E943A
:101A00001F02DC01CB018BA39CA3ADA3BEA36BA1E2
:101A10007CA18DA19EA120E030E040E85FE30E9420
:101A2000790388232CF481E090E09AA389A33FC036
:101A30006BA17CA18DA19EA120E03FEF4FE757E471
:101A40000E94190318164CF56FA178A589A59AA5CF
:101A500020E030E040E251E40E941F02DC01CB01B3
:101A6000BC01CD010E944900DC01CB019AA389A3EE
:101A70000FC088EC90E098A38F8F8F8D98A101976D
:101A8000F1F798A38F8F89A19AA101979AA389A3AF
:101A900089A19AA1009769F714C06BA17CA18DA1BF
:101AA0009EA10E944900DC01CB019AA389A389A1D0
:101AB0009AA19E8F8D8F8D8D9E8D0197F1F79E8FB0
:101AC0008D8F0E94F1050E94AC1B8BA780E090E0F7
:101AD000A8E4B2E4898F9A8FAB8FBC8F698D7A8D21
:101AE0008B8D9C8D20E030E04AEF54E40E941F0271
:101AF000DC01CB018D8B9E8BAF8BB88F6D897E897E
:101B00008F89988D20E030E040E85FE30E94790300
:101B100088232CF481E090E09C8B8B8B3FC06D89F7
:101B20007E898F89988D20E03FEF4FE757E40E9430
:101B3000190318164CF5698D7A8D8B8D9C8D20E0DC
:101B400030E040E251E40E941F02DC01CB01BC0105
:101B5000CD010E944900DC01CB019C8B8B8B0FC017
:101B600088EC90E09A8B898B89899A890197F1F7A3
:101B70009A8B898B8B899C8901979C8B8B8B8B890A
:101B80009C89009769F714C06D897E898F89988D2B
:101B90000E944900DC01CB019C8B8B8B8B899C893B
:101BA000988B8F878F8598890197F1F7988B8F870E
:101BB0008BA5282F30E03DA72CA78CA59DA58233AF
:101BC0009105C9F02CA53DA52333310534F48CA52E
:101BD0009DA58133910561F017C02CA53DA5233348
:101BE000310561F08CA59DA58433910551F00CC0A1
:101BF0000E948C0766CF0E94320863CF0E94AA0918
:101C000060CF0E94080C5DCF0E94741B22E232E07C
:101C100081E063E0A9010E94381B80E090E0AAEF18
:101C2000B4E48B879C87AD87BE876B857C858D856B
:101C30009E8520E030E04AEF54E40E941F02DC0160
:101C4000CB018F839887A987BA876F81788589852B
:101C50009A8520E030E040E85FE30E947903882322
:101C60002CF481E090E09E838D833FC06F81788566
:101C700089859A8520E03FEF4FE757E40E941903DA
:101C800018164CF56B857C858D859E8520E030E0AF
:101C900040E251E40E941F02DC01CB01BC01CD01F6
:101CA0000E944900DC01CB019E838D830FC088EC2C
:101CB00090E09C838B838B819C810197F1F79C83BF
:101CC0008B838D819E8101979E838D838D819E81E3
:101CD000009769F7F6CE6F81788589859A850E948D
:101CE0004900DC01CB019E838D838D819E819A8387
:101CF000898389819A810197F1F79A838983E1CE5B
:101D0000DF93CF9300D000D0CDB7DEB789836A834D
:101D10008981282F30E03C832B838B819C8181300B
:101D20009105D1F02B813C81223031052CF48B813F
:101D30009C81009761F01EC02B813C8122303105CF
:101D400081F08B819C818330910581F013C0EAE39F
:101D5000F0E08A8180830EC0E7E3F0E08A8180832F
:101D600009C0E4E3F0E08A81808304C0E1E3F0E0AD
:101D70008A8180830F900F900F900F90CF91DF9109
:101D80000895DF93CF93CDB7DEB727970FB6F894BA
:101D9000DEBF0FBECDBF89836A834B838B818130C9
:101DA00009F06FC08981282F30E03F832E838E8118
:101DB0009F818130910549F12E813F81223031058B
:101DC0002CF48E819F81009761F0D2C02E813F81DB
:101DD0002230310571F18E819F8183309105E9F1C7
:101DE000C7C0AAE3B0E0EAE3F0E08081482F8A812F
:101DF000282F30E081E090E0022E02C0880F991F6A
:101E00000A94E2F7842B8C93B3C0A7E3B0E0E7E336
:101E1000F0E08081482F8A81282F30E081E090E037
:101E2000022E02C0880F991F0A94E2F7842B8C932C
:101E30009FC0A4E3B0E0E4E3F0E08081482F8A8112
:101E4000282F30E081E090E0022E02C0880F991F19
:101E50000A94E2F7842B8C938BC0A1E3B0E0E1E31A
:101E6000F0E08081482F8A81282F30E081E090E0E7
:101E7000022E02C0880F991F0A94E2F7842B8C93DC
:101E800077C08B81882309F073C08981282F30E0C7
:101E90003D832C838C819D818130910559F12C816A
:101EA0003D81223031052CF48C819D81009769F0B1
:101EB0005FC02C813D812230310589F18C819D816B
:101EC0008330910509F440C053C0AAE3B0E0EAE3CF
:101ED000F0E08081482F8A81282F30E081E090E077
:101EE000022E02C0880F991F0A94E2F7809584237E
:101EF0008C933EC0A7E3B0E0E7E3F0E08081482F99
:101F00008A81282F30E081E090E0022E02C0880F05
:101F1000991F0A94E2F7809584238C9329C0A4E347
:101F2000B0E0E4E3F0E08081482F8A81282F30E0A0
:101F300081E090E0022E02C0880F991F0A94E2F718
:101F4000809584238C9314C0A1E3B0E0E1E3F0E03A
:101F50008081482F8A81282F30E081E090E0022E96
:101F600002C0880F991F0A94E2F7809584238C930E
:101F700027960FB6F894DEBF0FBECDBFCF91DF918D
:101F80000895DF93CF9300D000D0CDB7DEB789831B
:101F90006A838981282F30E03C832B838B819C814D
:101FA00081309105D1F02B813C81223031052CF418
:101FB0008B819C81009761F01EC02B813C81223077
:101FC000310581F08B819C818330910581F013C0B4
:101FD000EBE3F0E08A8180830EC0E8E3F0E08A81E1
:101FE000808309C0E5E3F0E08A81808304C0E2E3F6
:101FF000F0E08A8180830F900F900F900F90CF9127
:10200000DF910895DF93CF93CDB7DEB727970FB653
:10201000F894DEBF0FBECDBF89836A834B838B816B
:10202000813009F06FC08981282F30E03F832E83F3
:102030008E819F818130910549F12E813F8122302F
:1020400031052CF48E819F81009761F0D2C02E81E2
:102050003F812230310571F18E819F81833091055E
:10206000E9F1C7C0ABE3B0E0EBE3F0E08081482FDB
:102070008A81282F30E081E090E0022E02C0880F94
:10208000991F0A94E2F7842B8C93B3C0A8E3B0E0C5
:10209000E8E3F0E08081482F8A81282F30E081E05A
:1020A00090E0022E02C0880F991F0A94E2F7842B59
:1020B0008C939FC0A5E3B0E0E5E3F0E08081482F7A
:1020C0008A81282F30E081E090E0022E02C0880F44
:1020D000991F0A94E2F7842B8C938BC0A2E3B0E0A3
:1020E000E2E3F0E08081482F8A81282F30E081E010
:1020F00090E0022E02C0880F991F0A94E2F7842B09
:102100008C9377C08B81882309F073C08981282F35
:1021100030E03D832C838C819D818130910559F184
:102120002C813D81223031052CF48C819D810097DA
:1021300069F05FC02C813D812230310589F18C81AD
:102140009D818330910509F440C053C0ABE3B0E0FA
:10215000EBE3F0E08081482F8A81282F30E081E096
:1021600090E0022E02C0880F991F0A94E2F7809532
:1021700084238C933EC0A8E3B0E0E8E3F0E08081E4
:10218000482F8A81282F30E081E090E0022E02C0A3
:10219000880F991F0A94E2F7809584238C9329C0B5
:1021A000A5E3B0E0E5E3F0E08081482F8A81282FA5
:1021B00030E081E090E0022E02C0880F991F0A945F
:1021C000E2F7809584238C9314C0A2E3B0E0E2E3AD
:1021D000F0E08081482F8A81282F30E081E090E074
:1021E000022E02C0880F991F0A94E2F7809584237B
:1021F0008C9327960FB6F894DEBF0FBECDBFCF915C
:10220000DF910895DF93CF9300D000D00F92CDB728
:10221000DEB78A836B8319828A81282F30E03D8361
:102220002C834C815D814130510541F18C819D8130
:102230008230910534F42C813D812115310561F006
:1022400052C04C815D814230510551F18C819D819C
:1022500083309105B9F147C0E9E3F0E08081282F90
:1022600030E08B81882F90E0A90102C055954795F9
:102270008A95E2F7CA018170898335C0E6E3F0E010
:102280008081282F30E08B81882F90E0A90102C047
:10229000559547958A95E2F7CA018170898323C0D5
:1022A000E3E3F0E08081282F30E08B81882F90E0FD
:1022B000A90102C0559547958A95E2F7CA01817038
:1022C000898311C0E0E3F0E08081282F30E08B812A
:1022D000882F90E0A90102C0559547958A95E2F7AD
:1022E000CA018170898389810F900F900F900F90A0
:1022F0000F90CF91DF910895DF93CF9300D000D05E
:10230000CDB7DEB79A838983E981FA818481282F4A
:1023100030E03C832B838B819C818130910509F4D3
:102320005CC02B813C812230310509F4C7C08B8110
:102330009C81009709F012C1A2E5B0E0E981FA8121
:10234000808191818C93E981FA8186818823B1F41F
:10235000A3E5B0E0E3E5F0E080818F7B8C93A3E51B
:10236000B0E0E3E5F0E08081877F8C93A9E5B0E001
:10237000E9E5F0E0808181608C9321C0E981FA81F8
:1023800086818130E1F4A3E5B0E0E3E5F0E080810F
:102390008F7B8C93A3E5B0E0E3E5F0E0808188607B
:1023A0008C93ACE5B0E0E981FA81828193818C93D2
:1023B000A9E5B0E0E9E5F0E0808182608C93A3E5D7
:1023C000B0E0E3E5F0E08081982F987FE981FA8121
:1023D00085818770892B8C93C1C0ACE4B0E0E98122
:1023E000FA818081918111969C938E93E981FA8183
:1023F0008681882321F5AFE4B0E0EFE4F0E080814E
:102400008E7F8C93AFE4B0E0EFE4F0E080818D7FCD
:102410008C93AEE4B0E0EEE4F0E08081877F8C93B3
:10242000AEE4B0E0EEE4F0E080818F7E8C93A9E52D
:10243000B0E0E9E5F0E0808184608C9331C0E9810F
:10244000FA818681813061F5AFE4B0E0EFE4F0E03D
:1024500080818E7F8C93AFE4B0E0EFE4F0E0808188
:102460008D7F8C93AEE4B0E0EEE4F0E08081886094
:102470008C93AEE4B0E0EEE4F0E080818F7E8C934C
:10248000AAE4B0E0E981FA818281938111969C935C
:102490008E93A9E5B0E0E9E5F0E0808180618C935E
:1024A000AEE4B0E0EEE4F0E08081982F987FE9811F
:1024B000FA8185818770892B8C9350C0A4E4B0E0A9
:1024C000E981FA81808191818C93E981FA81868109
:1024D0008823B1F4A5E4B0E0E5E4F0E080818F7BEF
:1024E0008C93A5E4B0E0E5E4F0E08081877F8C93F5
:1024F000A9E5B0E0E9E5F0E0808180648C9321C03B
:10250000E981FA8186818130E1F4A5E4B0E0E5E477
:10251000F0E080818F7B8C93A5E4B0E0E5E4F0E00F
:10252000808188608C93A3E4B0E0E981FA818281A4
:1025300093818C93A9E5B0E0E9E5F0E080818068C3
:102540008C93A5E4B0E0E5E4F0E08081982F987FDB
:10255000E981FA8185818770892B8C930F900F9088
:102560000F900F90CF91DF910895DF93CF9300D01C
:102570000F92CDB7DEB789838981282F30E03B8366
:102580002A838A819B8181309105F9F02A813B81E0
:102590002230310599F18A819B81009709F042C070
:1025A000E3E5F0E01082E2E5F0E01082A9E5B0E0BA
:1025B000E9E5F0E080818E7F8C93A9E5B0E0E9E564
:1025C000F0E080818D7F8C932DC0EFE4F0E01082ED
:1025D000EEE4F0E01082ECE4F0E011821082A9E574
:1025E000B0E0E9E5F0E080818B7F8C93A9E5B0E075
:1025F000E9E5F0E080818F7E8C9314C0E5E4F0E0A3
:102600001082E4E4F0E01082A9E5B0E0E9E5F0E052
:1026100080818F7B8C93A9E5B0E0E9E5F0E08081D3
:102620008F778C930F900F900F90CF91DF9108953B
:10263000DF93CF9300D000D00F92CDB7DEB79A834F
:1026400089836B838B81282F30E03D832C838C81A1
:102650009D818130910581F02C813D8122303105B1
:1026600091F08C819D810097A1F489819A8190934A
:102670004802809347020DC089819A8190934A0253
:102680008093490206C089819A8190934C0280937D
:102690004B020F900F900F900F900F90CF91DF9102
:1026A00008951F920F920FB60F9211242F933F930C
:1026B0004F935F936F937F938F939F93AF93BF934A
:1026C000EF93FF93DF93CF93CDB7DEB780914702AF
:1026D00090914802009729F0E0914702F09148025A
:1026E0000995CF91DF91FF91EF91BF91AF919F91AC
:1026F0008F917F916F915F914F913F912F910F90AB
:102700000FBE0F901F9018951F920F920FB60F9249
:1027100011242F933F934F935F936F937F938F93E6
:102720009F93AF93BF93EF93FF93DF93CF93CDB777
:10273000DEB78091470290914802009729F0E0911E
:102740004702F09148020995CF91DF91FF91EF91F7
:10275000BF91AF919F918F917F916F915F914F91B9
:102760003F912F910F900FBE0F901F9018951F92C1
:102770000F920FB60F9211242F933F934F935F93B5
:102780006F937F938F939F93AF93BF93EF93FF9339
:10279000DF93CF93CDB7DEB78091490290914A0283
:1027A000009729F0E0914902F0914A020995CF91F2
:1027B000DF91FF91EF91BF91AF919F918F917F91A9
:1027C0006F915F914F913F912F910F900FBE0F909E
:1027D0001F9018951F920F920FB60F9211242F93EE
:1027E0003F934F935F936F937F938F939F93AF9399
:1027F000BF93EF93FF93DF93CF93CDB7DEB7809175
:10280000490290914A02009729F0E0914902F09123
:102810004A020995CF91DF91FF91EF91BF91AF915E
:102820009F918F917F916F915F914F913F912F91E8
:102830000F900FBE0F901F9018951F920F920FB61A
:102840000F9211242F933F934F935F936F937F9336
:102850008F939F93AF93BF93EF93FF93DF93CF93A8
:10286000CDB7DEB780914B0290914C02009729F0D2
:10287000E0914B02F0914C020995CF91DF91FF91CD
:10288000EF91BF91AF919F918F917F916F915F91E8
:102890004F913F912F910F900FBE0F901F90189561
:1028A0001F920F920FB60F9211242F933F934F93C5
:1028B0005F936F937F938F939F93AF93BF93EF93A8
:1028C000FF93DF93CF93CDB7DEB780914B0290910A
:1028D0004C02009729F0E0914B02F0914C020995CF
:1028E000CF91DF91FF91EF91BF91AF919F918F9128
:1028F0007F916F915F914F913F912F910F900FBEFC
:102900000F901F901895DF93CF93CDB7DEB7289720
:102910000FB6F894DEBF0FBECDBF9C838B831A82A7
:102920001982ABE2B0E0EBE2F0E0808182608C9350
:10293000EAE2F0E01082AAE2B0E0EAE2F0E08081B0
:1029400080618C93AAE2B0E0EAE2F0E080818860E6
:102950008C93EB81FC818081843041F4AAE2B0E069
:10296000EAE2F0E0808184608C9307C0AAE2B0E0E4
:10297000EAE2F0E080818B7F8C93E0E4F0E010826B
:10298000A0E4B0E0E0E4F0E0808180688C93EB812B
:10299000FC818081282F30E038872F838F819885B4
:1029A00082309105C1F12F8138852330310554F4EF
:1029B0008F819885009789F02F81388521303105E6
:1029C000D9F055C08F8198858330910599F12F8179
:1029D000388524303105E9F14AC0A0E4B0E0E0E4F4
:1029E000F0E080818D7F8C93A0E4B0E0E0E4F0E043
:1029F00080818B7F8C933BC0A0E4B0E0E0E4F0E00A
:102A0000808182608C93A0E4B0E0E0E4F0E080811B
:102A10008B7F8C932CC0A0E4B0E0E0E4F0E08081F8
:102A20008D7F8C93A0E4B0E0E0E4F0E080818460EE
:102A30008C931DC0A0E4B0E0E0E4F0E0808182600F
:102A40008C93A0E4B0E0E0E4F0E0808184608C93BB
:102A50000EC0A0E4B0E0E0E4F0E0808182608C93FE
:102A6000A0E4B0E0E0E4F0E0808184608C93EB814E
:102A7000FC818181282F30E03E832D838D819E81D2
:102A800082309105C1F02D813E812330310511F155
:102A90008D819E81009761F5A0E4B0E0E0E4F0E074
:102AA00080818F7E8C93A0E4B0E0E0E4F0E0808150
:102AB0008F7D8C931DC0A0E4B0E0E0E4F0E0808165
:102AC0008F7E8C93A0E4B0E0E0E4F0E0808180624F
:102AD0008C930EC0A0E4B0E0E0E4F0E0808180617F
:102AE0008C93A0E4B0E0E0E4F0E0808180628C931D
:102AF000EB81FC818281813041F4A0E4B0E0E0E42C
:102B0000F0E0808188608C9307C0A0E4B0E0E0E44E
:102B1000F0E08081877F8C93EB81FC8183819481BD
:102B2000A581B681880F991FAA1FBB1F880F991F07
:102B3000AA1FBB1F880F991FAA1FBB1F9C01AD01B5
:102B400080E092E1AAE7B0E0BC01CD010E94981DAF
:102B5000DA01C90101979A838983E0E4F0E0898171
:102B60009A81892F99278083E9E2F0E08981808327
:102B700028960FB6F894DEBF0FBECDBFCF91DF9180
:102B80000895DF93CF930F92CDB7DEB78983EBE241
:102B9000F0E08081882F90E0807290700097B9F308
:102BA000ECE2F0E0898180830F90CF91DF9108956E
:102BB000DF93CF93CDB7DEB7EBE2F0E080818823DF
:102BC000DCF7ECE2F0E08081CF91DF910895DF93B4
:102BD000CF9300D00F92CDB7DEB79B838A83198243
:102BE0000EC08981282F30E08A819B81FC01E20F91
:102BF000F31F80810E94C11589818F5F898389813C
:102C0000282F30E08A819B81FC01E20FF31F808135
:102C1000882339F70F900F900F90CF91DF9108958F
:102C20000F931F93DF93CF9300D00F92CDB7DEB7F2
:102C30009B838A8319828981282F30E08A819B8136
:102C40008C01020F131F0E94D815F80180830FC05A
:102C500089818F5F89838981282F30E08A819B81D8
:102C60008C01020F131F0E94D815F80180838981FF
:102C7000282F30E08A819B81FC01E20FF31F8081C5
:102C8000833231F78981282F30E08A819B81FC01D2
:102C9000E20FF31F10820F900F900F90CF91DF91F2
:102CA0001F910F910895DF93CF93CDB7DEB72E9785
:102CB0000FB6F894DEBF0FBECDBF82E060E041E00A
:102CC0000E94C10E82E061E041E00E94C10E80E0FE
:102CD0006FEF0E94800E80E090E0A0EAB1E48B8765
:102CE0009C87AD87BE876B857C858D859E8520E022
:102CF00030E04AEF54E40E941F02DC01CB018F83D5
:102D00009887A987BA876F81788589859A8520E019
:102D100030E040E85FE30E94790388232CF481E0EF
:102D200090E09E838D833FC06F81788589859A85E9
:102D300020E03FEF4FE757E40E94190318164CF5C7
:102D40006B857C858D859E8520E030E040E251E4F6
:102D50000E941F02DC01CB01BC01CD010E94490091
:102D6000DC01CB019E838D830FC088EC90E09C83B7
:102D70008B838B819C810197F1F79C838B838D8161
:102D80009E8101979E838D838D819E81009769F737
:102D900014C06F81788589859A850E944900DC017D
:102DA000CB019E838D838D819E819A8389838981C6
:102DB0009A810197F1F79A83898388E30E94EF163D
:102DC0008CE00E94EF1681E00E94EF162E960FB65F
:102DD000F894DEBF0FBECDBFCF91DF910895DF9392
:102DE000CF93CDB7DEB7E9970FB6F894DEBF0FBE2D
:102DF000CDBF89AF82E060E040E00E94021080E039
:102E000090E0A0E8BFE38DAB9EABAFABB8AF6DA9D0
:102E10007EA98FA998AD20E030E04AEF54E40E94EB
:102E20001F02DC01CB0189AB9AABABABBCAB69A990
:102E30007AA98BA99CA920E030E040E85FE30E94DA
:102E4000790388232CF481E090E098AB8FA73FC0F2
:102E500069A97AA98BA99CA920E03FEF4FE757E425
:102E60000E94190318164CF56DA97EA98FA998AD7B
:102E700020E030E040E251E40E941F02DC01CB017F
:102E8000BC01CD010E944900DC01CB0198AB8FA7AA
:102E90000FC088EC90E09EA78DA78DA59EA50197F9
:102EA000F1F79EA78DA78FA598A9019798AB8FA73B
:102EB0008FA598A9009769F714C069A97AA98BA969
:102EC0009CA90E944900DC01CB0198AB8FA78FA57C
:102ED00098A99CA78BA78BA59CA50197F1F79CA708
:102EE0008BA782E061E041E00E94021080E090E068
:102EF000A0E8BFE38FA398A7A9A7BAA76FA178A559
:102F000089A59AA520E030E04AEF54E40E941F0210
:102F1000DC01CB018BA39CA3ADA3BEA36BA17CA1C1
:102F20008DA19EA120E030E040E85FE30E9479039C
:102F300088232CF481E090E09AA389A33FC06BA181
:102F40007CA18DA19EA120E03FEF4FE757E40E94B6
:102F5000190318164CF56FA178A589A59AA520E04C
:102F600030E040E251E40E941F02DC01CB01BC01D1
:102F7000CD010E944900DC01CB019AA389A30FC0B7
:102F800088EC90E098A38F8F8F8D98A10197F1F72F
:102F900098A38F8F89A19AA101979AA389A389A148
:102FA0009AA1009769F714C06BA17CA18DA19EA185
:102FB0000E944900DC01CB019AA389A389A19AA1AF
:102FC0009E8F8D8F8D8D9E8D0197F1F79E8F8D8FAA
:102FD00080E069AD0E94C10F80E090E0A0E8BFE30F
:102FE000898F9A8FAB8FBC8F698D7A8D8B8D9C8DDD
:102FF00020E030E04AEF54E40E941F02DC01CB01E4
:103000008D8B9E8BAF8BB88F6D897E898F89988DC4
:1030100020E030E040E85FE30E94790388232CF44D
:1030200081E090E09C8B8B8B3FC06D897E898F897E
:10303000988D20E03FEF4FE757E40E9419031816E0
:103040004CF5698D7A8D8B8D9C8D20E030E040E2CF
:1030500051E40E941F02DC01CB01BC01CD010E94A2
:103060004900DC01CB019C8B8B8B0FC088EC90E07E
:103070009A8B898B89899A890197F1F79A8B898B29
:103080008B899C8901979C8B8B8B8B899C89009762
:1030900069F714C06D897E898F89988D0E944900D7
:1030A000DC01CB019C8B8B8B8B899C89988B8F87C8
:1030B0008F8598890197F1F7988B8F8782E061E07F
:1030C00040E00E94021080E090E0A0E8BFE38B8720
:1030D0009C87AD87BE876B857C858D859E8520E02E
:1030E00030E04AEF54E40E941F02DC01CB018F83E1
:1030F0009887A987BA876F81788589859A8520E026
:1031000030E040E85FE30E94790388232CF481E0FB
:1031100090E09E838D833FC06F81788589859A85F5
:1031200020E03FEF4FE757E40E94190318164CF5D3
:103130006B857C858D859E8520E030E040E251E402
:103140000E941F02DC01CB01BC01CD010E9449009D
:10315000DC01CB019E838D830FC088EC90E09C83C3
:103160008B838B819C810197F1F79C838B838D816D
:103170009E8101979E838D838D819E81009769F743
:1031800014C06F81788589859A850E944900DC0189
:10319000CB019E838D838D819E819A8389838981D2
:1031A0009A810197F1F79A838983E9960FB6F8948B
:1031B000DEBF0FBECDBFCF91DF910895DF93CF93D8
:1031C000CDB7DEB7E9970FB6F894DEBF0FBECDBF1F
:1031D00089AF82E060E041E00E94021080E090E070
:1031E000A0E8BFE38DAB9EABAFABB8AF6DA97EA936
:1031F0008FA998AD20E030E04AEF54E40E941F020E
:10320000DC01CB0189AB9AABABABBCAB69A97AA9AA
:103210008BA99CA920E030E040E85FE30E9479039D
:1032200088232CF481E090E098AB8FA73FC069A978
:103230007AA98BA99CA920E03FEF4FE757E40E94B1
:10324000190318164CF56DA97EA98FA998AD20E039
:1032500030E040E251E40E941F02DC01CB01BC01DE
:10326000CD010E944900DC01CB0198AB8FA70FC0B4
:1032700088EC90E09EA78DA78DA59EA50197F1F7FC
:103280009EA78DA78FA598A9019798AB8FA78FA50B
:1032900098A9009769F714C069A97AA98BA99CA974
:1032A0000E944900DC01CB0198AB8FA78FA598A99C
:1032B0009CA78BA78BA59CA50197F1F79CA78BA733
:1032C00082E061E041E00E94021080E090E0A0E82E
:1032D000BFE38FA398A7A9A7BAA76FA178A589A5CF
:1032E0009AA520E030E04AEF54E40E941F02DC017E
:1032F000CB018BA39CA3ADA3BEA36BA17CA18DA18D
:103300009EA120E030E040E85FE30E94790388233B
:103310002CF481E090E09AA389A33FC06BA17CA12B
:103320008DA19EA120E03FEF4FE757E40E941903D3
:1033300018164CF56FA178A589A59AA520E030E074
:1033400040E251E40E941F02DC01CB01BC01CD012F
:103350000E944900DC01CB019AA389A30FC088EC2D
:1033600090E098A38F8F8F8D98A10197F1F798A384
:103370008F8F89A19AA101979AA389A389A19AA164
:10338000009769F714C06BA17CA18DA19EA10E943A
:103390004900DC01CB019AA389A389A19AA19E8F40
:1033A0008D8F8D8D9E8D0197F1F79E8F8D8F80E093
:1033B00069AD0E94C10F80E090E0A0E8BFE3898F73
:1033C0009A8FAB8FBC8F698D7A8D8B8D9C8D20E011
:1033D00030E04AEF54E40E941F02DC01CB018D8BE8
:1033E0009E8BAF8BB88F6D897E898F89988D20E0F9
:1033F00030E040E85FE30E94790388232CF481E009
:1034000090E09C8B8B8B3FC06D897E898F89988DD6
:1034100020E03FEF4FE757E40E94190318164CF5E0
:10342000698D7A8D8B8D9C8D20E030E040E251E4F7
:103430000E941F02DC01CB01BC01CD010E944900AA
:10344000DC01CB019C8B8B8B0FC088EC90E09A8BBE
:10345000898B89899A890197F1F79A8B898B8B8956
:103460009C8901979C8B8B8B8B899C89009769F732
:1034700014C06D897E898F89988D0E944900DC0176
:10348000CB019C8B8B8B8B899C89988B8F878F85AD
:1034900098890197F1F7988B8F8782E061E040E08F
:1034A0000E94021080E090E0A0E8BFE38B879C8739
:1034B000AD87BE876B857C858D859E8520E030E05D
:1034C0004AEF54E40E941F02DC01CB018F839887EE
:1034D000A987BA876F81788589859A8520E030E051
:1034E00040E85FE30E94790388232CF481E090E0B8
:1034F0009E838D833FC06F81788589859A8520E082
:103500003FEF4FE757E40E94190318164CF56B85FF
:103510007C858D859E8520E030E040E251E40E946C
:103520001F02DC01CB01BC01CD010E944900DC017E
:10353000CB019E838D830FC088EC90E09C838B83AE
:103540008B819C810197F1F79C838B838D819E8178
:1035500001979E838D838D819E81009769F714C0AA
:103560006F81788589859A850E944900DC01CB01AD
:103570009E838D838D819E819A83898389819A819F
:103580000197F1F79A838983E9960FB6F894DEBF25
:103590000FBECDBFCF91DF910895DF93CF9300D0C1
:1035A0000F92CDB7DEB79B838A8319820EC08981C3
:1035B000282F30E08A819B81FC01E20FF31F80817C
:1035C0000E94DE1889818F5F89838981282F30E0EE
:1035D0008A819B81FC01E20FF31F8081882339F7E8
:1035E0000F900F900F90CF91DF910895DF93CF93BD
:1035F00000D000D00F92CDB7DEB78A836B838A816B
:10360000282F30E03D832C838C819D818130910572
:10361000C1F02C813D81223031052CF48C819D81BB
:10362000009761F019C02C813D812230310569F08D
:103630008C819D818330910561F00EC08B818983DF
:103640000BC08B81805C898307C08B81805F8983FD
:1036500003C08B81805B8983898180680E94EF161B
:103660000F900F900F900F900F90CF91DF910895D2
:10367000DF93CF9300D000D0CDB7DEB789836A83C4
:103680005C834B8389816A810E94F61A8B819C81BD
:103690000E94CD1A0F900F900F900F90CF91DF9155
:1036A0000895DF93CF93CDB7DEB762970FB6F89446
:1036B000DEBF0FBECDBF9A8B898B89899A899E0107
:1036C0002F5F3F4FB9014AE050E00E94F11DCE014B
:1036D00001960E94CD1A62960FB6F894DEBF0FBE17
:1036E000CDBFCF91DF910895DF93CF93CDB7DEB7F4
:1036F00081E00E94EF16CF91DF910895DF93CF9381
:103700000F92CDB7DEB7198208C081E0698140E031
:103710000E94C10E89818F5F898389818430A8F3DB
:10372000198213C08981982F9C5F81E0692F40E046
:103730000E94C10E8981982F9C5F81E0692F41E032
:103740000E94021089818F5F89838981843050F3C0
:103750000F90CF91DF910895DF93CF93CDB7DEB770
:103760006F970FB6F894DEBF0FBECDBF1E8E33C16C
:1037700081E06E8D41E00E94C10E81E06E8D40E0DF
:103780000E9402101F8EA9C08F8D982F9C5F81E030
:10379000692F0E940211882309F09CC080E090E00C
:1037A000A0EAB1E4898F9A8FAB8FBC8F698D7A8D37
:1037B0008B8D9C8D20E030E04AEF54E40E941F0284
:1037C000DC01CB018D8B9E8BAF8BB88F6D897E8991
:1037D0008F89988D20E030E040E85FE30E94790314
:1037E00088232CF481E090E09C8B8B8B3FC06D890B
:1037F0007E898F89988D20E03FEF4FE757E40E9444
:10380000190318164CF5698D7A8D8B8D9C8D20E0EF
:1038100030E040E251E40E941F02DC01CB01BC0118
:10382000CD010E944900DC01CB019C8B8B8B0FC02A
:1038300088EC90E09A8B898B89899A890197F1F7B6
:103840009A8B898B8B899C8901979C8B8B8B8B891D
:103850009C89009769F714C06D897E898F89988D3E
:103860000E944900DC01CB019C8B8B8B8B899C894E
:10387000988B8F878F8598890197F1F7988B8F8721
:103880008F8D982F9C5F81E0692F0E940211882301
:1038900009F58F8D982F9C5F81E0692F0E9402119E
:1038A0008823B9F38E8D882F90E0880F991F880F99
:1038B000991F982F8F8D890F8F5F8D8F8D8D0E940F
:1038C000F01C6F960FB6F894DEBF0FBECDBFCF9140
:1038D000DF9108958F8D8F5F8F8F8F8D843008F4E7
:1038E00053CF81E06E8D40E00E94C10E80E090E0F9
:1038F000A0EAB0E48B879C87AD87BE876B857C850B
:103900008D859E8520E030E04AEF54E40E941F023E
:10391000DC01CB018F839887A987BA876F8178856F
:1039200089859A8520E030E040E85FE30E947903D2
:1039300088232CF481E090E09E838D833FC06F81CB
:10394000788589859A8520E03FEF4FE757E40E940C
:10395000190318164CF56B857C858D859E8520E0B6
:1039600030E040E251E40E941F02DC01CB01BC01C7
:10397000CD010E944900DC01CB019E838D830FC0E5
:1039800088EC90E09C838B838B819C810197F1F77D
:103990009C838B838D819E8101979E838D838D81F6
:1039A0009E81009769F714C06F81788589859A8513
:1039B0000E944900DC01CB019E838D838D819E8115
:1039C0009A83898389819A810197F1F79A83898300
:1039D0008E8D8F5F8E8F8E8D843008F4C9CEC6CECB
:1039E000DF93CF9300D000D0CDB7DEB78A831982A2
:1039F0008A81282F30E03C832B838B819C81883007
:103A0000910509F470C02B813C81293031055CF5AA
:103A10008B819C818430910509F459C02B813C81B4
:103A2000253031059CF48B819C818230910509F40D
:103A300048C02B813C81233031050CF045C08B817F
:103A40009C818130910509F439C068C02B813C818B
:103A50002630310509F441C08B819C818730910566
:103A60000CF03EC037C02B813C812C30310509F46D
:103A700046C08B819C818D3091055CF42B813C810B
:103A80002A303105B1F18B819C818B309105A4F5F1
:103A90002DC02B813C812E303105B9F18B819C8169
:103AA0008E3091057CF12B813C812F30310581F1E5
:103AB0008B819C818031910571F130C081E38983D4
:103AC0002FC082E389832CC083E3898329C084E3E8
:103AD000898326C085E3898323C086E3898320C048
:103AE00087E389831DC088E389831AC089E38983BA
:103AF00017C080E3898314C081E3898311C082E306
:103B000089830EC083E389830BC084E3898308C063
:103B100085E3898305C086E3898302C080E38983C6
:103B200089810F900F900F900F90CF91DF910895A2
:103B3000A1E21A2EAA1BBB1BFD010DC0AA1FBB1FB1
:103B4000EE1FFF1FA217B307E407F50720F0A21B23
:103B5000B30BE40BF50B661F771F881F991F1A9490
:103B600069F760957095809590959B01AC01BD01BA
:103B7000CF0108952F923F924F925F926F927F9262
:103B80008F929F92AF92BF92CF92DF92EF92FF926D
:103B90000F931F93CF93DF93CDB7DEB7CA1BDB0B19
:103BA0000FB6F894DEBF0FBECDBF09942A883988BE
:103BB00048885F846E847D848C849B84AA84B984C5
:103BC000C884DF80EE80FD800C811B81AA81B981D1
:103BD000CE0FD11D0FB6F894DEBF0FBECDBFED01E5
:103BE0000895FB019F01E8944230C4F04532B4F4DB
:103BF0004A3029F497FB1EF4909581959F4F642FCE
:103C000077270E94221E805D8A330CF0895D8193A4
:103C1000CB010097A1F716F45DE251931082C90120
:103C20000C94121EDC01FC01672F71917723E1F7E0
:103C3000329704C07C916D9370836291AE17BF0779
:103C4000C8F30895AA1BBB1B51E107C0AA1FBB1FE5
:103C5000A617B70710F0A61BB70B881F991F5A9518
:103C6000A9F780959095BC01CD010895F894FFCFF8
:103C7000312D5374617274204F7065726174696F75
:103C80006E00322D446973706C61792056616C75D9
:103C9000657300332D5265747269657665204661DF
:103CA000756C747300342D53746F70204D6F6E6992
:103CB000746F72696E67004F7065726174696F6EC0
:103CC000202020202020200053746172746564211C
:103CD0002020202020202020004D6F6E69746F72FC
:103CE000696E67202020202020004163746976657A
:103CF0002E2E2E202020202020200054656D703A8A
:103D00002000204320202020202000446973743AA2
:103D1000200020636D20202020200057313A004FE2
:103D200070656E20202000436C6F7365642000571F
:103D3000323A00446973706C617920616761696E21
:103D40003F20200050726573732032203D2059457A
:103D500053202020004F74686572203D204D454E51
:103D60005520202020004C6F6767656420466175F0
:103D70006C74733A202000503030313A44697374C7
:103D800020436C6F73652000503030323A4F7665B7
:103D9000726865617420202000502D556E6B3A20AA
:103DA000002020202020202020004E6F20666175FA
:103DB0006C747320666F756E642E002D2D456E64D5
:103DC000206F66204C6973742D2D2000507265732E
:103DD000732033203D205945532020200053797310
:103DE00074656D2020202020202020202000537486
:103DF0006F70706564212020202020202020005634
:103E0000656869636C65204661756C7420202000CC
:103E1000446574656374696F6E2053797374656D5E
:103E200000484D492052656164792E2E2E202020B5
:103E30002000496E76616C6964204B657921000031
:103E4000000000000000000000841E0105010300C6
:063E5000008025000000C7
:00000001FF
