:100000000C942A000C9447000C9447000C94470071
:100010000C9447000C9447000C94E10D0C9447009D
:100020000C9447000C9447000C9447000C94470034
:100030000C9447000C9447000C9447000C94470024
:100040000C9447000C9447000C9447000C94470014
:100050000C94470011241FBECFE5D8E0DEBFCDBF12
:1000600011E0A0E6B0E0E0E7FBE202C005900D92EF
:10007000A437B107D9F711E0A4E7B1E001C01D92A0
:10008000AD37B107E1F70E940F090C94B6150C9437
:100090000000EF92FF920F931F937B018C0120E0F1
:1000A00030E040E05FE40E94F50388238CF0C80153
:1000B000B70120E030E040E05FE40E94C1010E940F
:1000C00055049B01AC01205030404040504806C0D0
:1000D000C801B7010E9455049B01AC01B901CA01D6
:1000E0001F910F91FF90EF900895A0E0B0E0EBE733
:1000F000F0E00C947F15DC012B01FA019C91923009
:1001000008F439C1EB018881823008F433C194309E
:1001100069F4843009F02FC111969C91119789815F
:10012000981709F428C1A0E6B0E025C1843009F48D
:1001300021C18230A9F4923009F01DC19A01AD01AC
:1001400088E0EA010990AE01E90109929E0181501F
:10015000C1F7E201898111969C918923818308C1AD
:10016000923009F407C112962D903C901397EB0141
:100170008A819B811496AD90BD90CD90DC901797AD
:10018000EC80FD800E811F819101281B390BB90184
:1001900037FF04C066277727621B730B6032710537
:1001A0000CF061C0121613066CF537014801062EDB
:1001B00004C096948794779467940A94D2F721E0C8
:1001C00030E040E050E004C0220F331F441F551FB1
:1001D0006A95D2F721503040404050402E213F21B7
:1001E00040235123211531054105510521F021E01E
:1001F00030E040E050E079018A01E628F72808293C
:1002000019293CC0232BD1F1260E371E350146019A
:10021000062E04C096948794779467940A94D2F734
:1002200021E030E040E050E004C0220F331F441FC3
:10023000551F6A95D2F721503040404050402A2146
:100240003B214C215D21211531054105510521F04E
:1002500021E030E040E050E059016A01A628B728CB
:10026000C828D9280BC0821593052CF01C01AA249C
:10027000BB24650103C0EE24FF24870111969C91E5
:10028000D20111968C91981709F445C0992339F041
:10029000A80197012A193B094C095D0906C0A6016E
:1002A00095012E193F09400B510B57FD08C01182D3
:1002B0003382228224833583468357831DC081E0A5
:1002C00081833382228288279927DC01821B930B4A
:1002D000A40BB50B84839583A683B7830DC0220F2F
:1002E000331F441F551F24833583468357838281E0
:1002F000938101979383828324813581468157813D
:10030000DA01C9010197A109B1098F5F9F4FAF4F72
:10031000BF4328F30BC0918333822282EA0CFB1C7B
:100320000C1D1D1DE482F5820683178383E0808304
:10033000248135814681578157FF1AC0C901AA27F8
:1003400097FDA095BA2F81709070A070B0705695EF
:10035000479537952795822B932BA42BB52B848318
:100360009583A683B7838281938101969383828349
:10037000DF0101C0D201CD01CDB7DEB7E2E10C94BF
:100380009B15A0E2B0E0E7ECF1E00C948B156983DB
:100390007A838B839C832D833E834F835887E9E048
:1003A000EE2EF12CEC0EFD1ECE010196B7010E943F
:1003B00046068E010F5E1F4FCE010596B8010E94C2
:1003C00046068A8991E089278A8BC701B801AE0168
:1003D000475E5F4F0E9475000E947105A096E6E09F
:1003E0000C94A715A0E2B0E0E8EFF1E00C948B15B7
:1003F00069837A838B839C832D833E834F835887C5
:10040000F9E0EF2EF12CEC0EFD1ECE010196B701A6
:100410000E9446068E010F5E1F4FCE010596B80161
:100420000E944606C701B801AE01475E5F4F0E94B9
:1004300075000E947105A096E6E00C94A715A0E255
:10044000B0E0E5E2F2E00C947F1569837A838B8358
:100450009C832D833E834F835887CE010196BE0136
:10046000675F7F4F0E944606CE010596BE016F5E14
:100470007F4F0E9446069985923088F089898230A4
:10048000C8F0943019F4823051F404C0843029F457
:10049000923081F480E690E0C6C0923049F420E0CA
:1004A0009A858A89981321E02A87CE010996BBC0D4
:1004B000823049F420E09A858A89981321E02A8BBA
:1004C000CE014196B0C02D843E844F8458886D88FB
:1004D0007E888F88988CEE24FF248701AA24BB2471
:1004E000650140E050E060E070E0E0E0F0E0C10174
:1004F00081709070892BE9F0E60CF71C081D191D1E
:100500009A01AB012A0D3B1D4C1D5D1D80E090E062
:10051000A0E0B0E0E614F7040805190520F481E036
:1005200090E0A0E0B0E0BA01A901480F591F6A1F8E
:100530007B1FAA0CBB1CCC1CDD1C97FE08C081E0F5
:1005400090E0A0E0B0E0A82AB92ACA2ADB2A3196B6
:10055000E032F10549F0660C771C881C991C569412
:10056000479437942794C3CFFA85EA892B893C892D
:100570008B859C85280F391F2E5F3F4F17C0CA01FE
:1005800081709070892B61F016950795F794E79428
:1005900080E090E0A0E0B0E8E82AF92A0A2B1B2BC3
:1005A00076956795579547952F5F3F4F77FDE7CF36
:1005B0000CC0440F551F661F771F17FD4160EE0CDE
:1005C000FF1C001F111F21503040403090E05907A0
:1005D00090E0690790E4790760F32B8F3C8FDB0193
:1005E000CA018F779070A070B07080349105A1051A
:1005F000B10561F447FD0AC0E114F10401051105DC
:1006000029F0405C5F4F6F4F7F4F40781A8EFE1786
:1006100011F081E08A8F4D8F5E8F6F8F78A383E01A
:10062000898FCE0149960E947105A096E2E10C9453
:100630009B15A8E1B0E0EFE1F3E00C948715698326
:100640007A838B839C832D833E834F835887B9E0C5
:10065000EB2EF12CEC0EFD1ECE010196B7010E948F
:1006600046068E010F5E1F4FCE010596B8010E940F
:1006700046062985223008F47EC03989323010F4CC
:10068000B8017CC08A859A8989278A87243011F02D
:10069000223031F4231709F06EC060E670E06EC0BE
:1006A000343039F41D861E861F86188A1C861B86E8
:1006B00004C0323021F484E08987B7015FC02B8504
:1006C0003C858B899C89281B390B3C872B87ED84C3
:1006D000FE840F851889AD88BE88CF88D88CEA142F
:1006E000FB040C051D0540F4EE0CFF1C001F111F40
:1006F000215030403C872B8720E030E040E050E044
:1007000080E090E0A0E0B0E460E070E0EA14FB0478
:100710000C051D0540F0282B392B4A2B5B2BEA18C2
:10072000FB080C091D09B695A79597958795EE0CC2
:10073000FF1C001F111F6F5F7F4F6F31710531F775
:10074000DA01C9018F779070A070B0708034910584
:10075000A105B10561F427FD0AC0E114F10401050A
:10076000110529F0205C3F4F4F4F5F4F20782D87B8
:100770003E874F87588BBE01675F7F4FCB010E943A
:1007800071056896EAE00C94A315A8E1B0E0EBECE3
:10079000F3E00C948B1569837A838B839C832D8380
:1007A0003E834F83588789E0E82EF12CEC0EFD1E26
:1007B000CE010196B7010E9446068E010F5E1F4FC3
:1007C000CE010596B8010E9446068985823040F028
:1007D0008989823028F0C701B8010E94BE0601C095
:1007E0008FEF6896E6E00C94A715A8E1B0E0EBEF78
:1007F000F3E00C948B1569837A838B839C832D8320
:100800003E834F83588789E0E82EF12CEC0EFD1EC5
:10081000CE010196B7010E9446068E010F5E1F4F62
:10082000CE010596B8010E9446068985823040F0C7
:100830008989823028F0C701B8010E94BE0601C034
:100840008FEF6896E6E00C94A715A8E1B0E0EBE224
:10085000F4E00C948B1569837A838B839C832D83BE
:100860003E834F83588789E0E82EF12CEC0EFD1E65
:10087000CE010196B7010E9446068E010F5E1F4F02
:10088000CE010596B8010E9446068985823040F067
:100890008989823028F0C701B8010E94BE0601C0D4
:1008A00081E06896E6E00C94A715ACE0B0E0EBE5DB
:1008B000F4E00C948F1569837A838B839C83CE013B
:1008C0000196BE016B5F7F4F0E9446068D8182308C
:1008D00061F1823050F1843021F48E81882351F10E
:1008E0002EC02F81388537FD20C06E812F31310514
:1008F0001CF06623F9F023C08EE190E0821B930B7D
:1009000029853A854B855C8504C056954795379572
:1009100027958A95D2F76623B1F05095409530958A
:1009200021953F4F4F4F5F4F0EC020E030E040E039
:1009300050E009C02FEF3FEF4FEF5FE704C020E02A
:1009400030E040E050E8B901CA012C96E2E00C9496
:10095000AB15A8E0B0E0EFEAF4E00C9487157B015A
:100960008C01611571058105910519F482E0898377
:1009700060C083E089838EE1C82ED12CDC82CB82DB
:10098000ED82FE820F831887C801B7010E942205FD
:10099000FC013197F7FF3BC0222733272E1B3F0B6B
:1009A00057016801022E04C0D694C794B794A79447
:1009B0000A94D2F740E050E060E070E081E090E01F
:1009C000A0E0B0E004C0880F991FAA1FBB1F2A95A2
:1009D000D2F70197A109B1098E219F21A023B1234C
:1009E0000097A105B10521F041E050E060E070E022
:1009F0004A295B296C297D294D835E836F83788723
:100A00008EE190E08E1B9F0B9C838B8312C03097EE
:100A100081F00E2E04C0EE0CFF1C001F111F0A9463
:100A2000D2F7ED82FE820F831887CE1ADF0ADC82AE
:100A3000CB821A82CE0101960E9471052896EAE0C7
:100A40000C94A315EF92FF920F931F937B018C01DF
:100A500080E0E81680E0F80681E0080780E01807EB
:100A600088F48FEFE816F1040105110531F028F044
:100A700088E090E0A0E0B0E017C080E090E0A0E067
:100A8000B0E012C080E0E81680E0F80680E00807D9
:100A900081E0180728F088E190E0A0E0B0E004C011
:100AA00080E190E0A0E0B0E020E230E040E050E003
:100AB000281B390B4A0B5B0B04C016950795F7945E
:100AC000E7948A95D2F7F701E859FF4F8081281BF8
:100AD000310941095109C9011F910F91FF90EF9010
:100AE0000895DF92EF92FF920F931F93FC01E48031
:100AF000F58006811781D1808081823048F480E0C2
:100B000090E0A0E1B0E0E82AF92A0A2B1B2BA5C04F
:100B1000843009F49FC0823021F4EE24FF24870141
:100B200005C0E114F1040105110519F4E0E0F0E05D
:100B300096C0628173819FEF623879070CF05BC0C9
:100B400022E83FEF261B370B2A3131052CF020E03D
:100B500030E040E050E02AC0B801A701022E04C0F6
:100B600076956795579547950A94D2F781E090E07E
:100B7000A0E0B0E004C0880F991FAA1FBB1F2A95F0
:100B8000D2F70197A109B1098E219F21A023B1239A
:100B90000097A105B10521F081E090E0A0E0B0E070
:100BA0009A01AB01282B392B4A2B5B2BDA01C901A7
:100BB0008F779070A070B07080349105A105B10559
:100BC00039F427FF09C0205C3F4F4F4F5F4F04C0EF
:100BD000215C3F4F4F4F5F4FE0E0F0E02030A0E05E
:100BE0003A07A0E04A07A0E45A0710F0E1E0F0E07D
:100BF00079018A0127C06038710564F5FB01E1586D
:100C0000FF4FD801C7018F779070A070B07080340B
:100C10009105A105B10539F4E7FE0DC080E490E02F
:100C2000A0E0B0E004C08FE390E0A0E0B0E0E80E08
:100C3000F91E0A1F1B1F17FF05C016950795F7948D
:100C4000E794319687E016950795F794E7948A958F
:100C5000D1F705C0EE24FF248701EFEFF0E06E2FFF
:100C6000679566276795902F9F77D794DD24D79453
:100C70008E2F8695492F462B582F5D29B701CA0123
:100C80001F910F91FF90EF90DF900895FC01DB0121
:100C9000408151812281622F6F7770E0221F2227CD
:100CA000221F9381892F880F822B282F30E0991FD4
:100CB0009927991F11969C93119721153105A9F534
:100CC000411551056105710511F482E037C082E8D4
:100CD0009FEF13969C938E9312979A01AB0167E056
:100CE000220F331F441F551F6A95D1F783E08C9361
:100CF0000DC0220F331F441F551F12968D919C91DA
:100D00001397019713969C938E931297203080E04F
:100D1000380780E0480780E4580758F314962D936D
:100D20003D934D935C93179708952F3F310579F4C8
:100D3000411551056105710519F484E08C930895FE
:100D400064FF03C081E08C9312C01C9210C02F5727
:100D5000304013963C932E93129783E08C9387E058
:100D6000440F551F661F771F8A95D1F7706414963C
:100D70004D935D936D937C93179708951F93DC01BA
:100D8000FB019C91923008F447C08081823008F4C6
:100D900043C0943051F411961C91843099F58181AF
:100DA000682F70E0611B71093FC0843021F09230E0
:100DB00031F48230B9F18181882389F12DC01196F7
:100DC0001C9111978230F1F081811817D9F4129695
:100DD0002D913C911397828193818217930794F010
:100DE00028173907BCF014968D919D910D90BC91F8
:100DF000A02D2481358146815781281739074A075C
:100E00005B0718F4112341F00AC082179307A40767
:100E1000B50740F4112319F061E070E005C06FEFF1
:100E20007FEF02C060E070E0CB011F910895DF9377
:100E3000CF9300D0CDB7DEB79A83898389819A8119
:100E4000892F99270E94781189810E9478110F902B
:100E50000F90CF91DF910895DF93CF93CDB7DEB799
:100E600064970FB6F894DEBF0FBECDBF8B8B81E0C9
:100E700090E0998B888B1A8A1F8698C088899989F7
:100E80009E012E5E3F4FB9010E94DE148F878F8531
:100E9000813011F01C8A92C08A898F3F09F081C08D
:100EA000888999896B890E949D148F878F858130ED
:100EB00009F075C080E090E0A0E2B1E48B879C87E8
:100EC000AD87BE876B857C858D859E8520E030E073
:100ED0004AEF54E40E941F02DC01CB018F83988704
:100EE000A987BA876F81788589859A8520E030E067
:100EF00040E85FE30E94250488232CF481E090E021
:100F00009E838D833FC06F81788589859A8520E097
:100F10003FEF4FE757E40E94C50318164CF56B8569
:100F20007C858D859E8520E030E040E251E40E9482
:100F30001F02DC01CB01BC01CD010E944900DC0194
:100F4000CB019E838D830FC088EC90E09C838B83C4
:100F50008B819C810197F1F79C838B838D819E818E
:100F600001979E838D838D819E81009769F714C0C0
:100F70006F81788589859A850E944900DC01CB01C3
:100F80009E838D838D819E819A83898389819A81B5
:100F90000197F1F79A83898321E02C8B0FC01C8A7B
:100FA0000DC0888999890196998B888B8889998940
:100FB00027E08F3F920708F461CF1C8A8C896496E2
:100FC0000FB6F894DEBF0FBECDBFCF91DF9108956D
:100FD000DF93CF9300D00F92CDB7DEB789837B83A9
:100FE0006A838A819B818A30910560F480917401C3
:100FF000882341F481E00E942C07813019F481E0BC
:101000008093740189818B3560F08091750188230C
:1010100041F482E00E942C07813019F481E0809332
:1010200075010F900F900F90CF91DF910895DF938E
:10103000CF93CDB7DEB761970FB6F894DEBF0FBE82
:10104000CDBF8F87688B8F8568890E94670D882345
:1010500009F07BC080E090E0A8E4B2E48B879C8735
:10106000AD87BE876B857C858D859E8520E030E0D1
:101070004AEF54E40E941F02DC01CB018F83988762
:10108000A987BA876F81788589859A8520E030E0C5
:1010900040E85FE30E94250488232CF481E090E07F
:1010A0009E838D833FC06F81788589859A8520E0F6
:1010B0003FEF4FE757E40E94C50318164CF56B85C8
:1010C0007C858D859E8520E030E040E251E40E94E1
:1010D0001F02DC01CB01BC01CD010E944900DC01F3
:1010E000CB019E838D830FC088EC90E09C838B8323
:1010F0008B819C810197F1F79C838B838D819E81ED
:1011000001979E838D838D819E81009769F714C01E
:101110006F81788589859A850E944900DC01CB0121
:101120009E838D838D819E819A83898389819A8113
:101130000197F1F79A8389838F8568890E94670DEB
:10114000882319F481E0898B01C0198A8989619605
:101150000FB6F894DEBF0FBECDBFCF91DF910895DB
:10116000DF93CF9300D000D0CDB7DEB79A838983C9
:101170007C836B8381E064E00E941708882349F038
:1011800080E061E044E60E94481281E080937601AD
:1011900013C081E065E00E941708882341F080E0D9
:1011A00062E044E60E9448121092760105C080E099
:1011B00060E040E00E94481281E066E00E9417086B
:1011C000882349F081E061E044E60E94481281E012
:1011D0008093770113C081E067E00E94170888239D
:1011E00041F081E062E044E60E94481210927701EB
:1011F00005C081E060E040E00E94481280917601E5
:10120000E981FA81808380917701EB81FC81808381
:101210000F900F900F900F90CF91DF910895DF9373
:10122000CF93CDB7DEB7A6970FB6F894DEBF0FBE4B
:10123000CDBF198618861F821E821D821A861B86C4
:101240001C861C821B821A8278949E01235F3F4F6A
:101250003E8F2D8F8DE691E098A38F8F97E099A315
:10126000EF8DF8A100802F8D38A12F5F3F4F38A35D
:101270002F8FED8DFE8D00822D8D3E8D2F5F3F4F88
:101280003E8F2D8F39A1315039A389A1882341F791
:10129000CE010D960E943A10FE017496FBA3EAA3BC
:1012A00028E631E03DA32CA335E03EA3ECA1FDA14F
:1012B00000802CA13DA12F5F3F4F3DA32CA3EAA1AD
:1012C000FBA100822AA13BA12F5F3F4F3BA32AA392
:1012D0003EA131503EA38EA1882341F7CE01449612
:1012E0000E943F0F82E0898F87E08A8FCE01499666
:1012F0000E943B0A0E94CC0E0E940A120E944A13CE
:1013000081E064E040E00E94260B81E065E040E07F
:101310000E94260B81E066E040E00E94260B81E0FF
:1013200067E040E00E94260B81E064E041E00E941B
:10133000670C81E065E041E00E94670C81E066E0B7
:1013400041E00E94670C81E067E041E00E94670C89
:101350000E948F118987CE010A969E01255F3F4F1B
:10136000B9010E94B0088985E82FF0E0FC8FEB8F6F
:101370002B8D3C8D22303105F1F08B8D9C8D83308F
:10138000910534F4EB8DFC8DE130F10569F0E0CF8F
:101390002B8D3C8D23303105D9F18B8D9C8D843084
:1013A000910509F45AC0D4CF81E088871092740166
:1013B00010927501CDCF0E9408138F830E944514AF
:1013C0009E838D83CE010A969E01255F3F4FB90112
:1013D0000E94B0088F810E9478118D819E810E94A9
:1013E00017078B85882F90E0880F991F982F8A8583
:1013F000892B898389810E9478118885882309F443
:10140000A7CF2D813E818F81B9010E94E807A0CF2F
:1014100081E090E09C838B838B819C819E01245F83
:101420003F4FB9010E94DE148A838A81813089F49A
:101430008C858F3F71F08C850E9478118B819C8107
:1014400001969C838B838B819C81E7E08F3F9E0775
:1014500018F38FEF0E9478117BCF188680E060E050
:1014600040E00E94481281E060E040E00E944812A3
:101470001A861B866DCFDF93CF9300D000D0CDB7F7
:10148000DEB79A838983E981FA818081282F30E051
:101490003C832B838B819C8181309105C1F02B8112
:1014A0003C812230310511F18B819C81009761F5DF
:1014B000A7E2B0E0E7E2F0E080818F7B8C93A7E2C7
:1014C000B0E0E7E2F0E080818F778C931DC0A7E267
:1014D000B0E0E7E2F0E0808180648C93A7E2B0E0C6
:1014E000E7E2F0E080818F778C930EC0A7E2B0E056
:1014F000E7E2F0E0808180648C93A7E2B0E0E7E26D
:10150000F0E0808180688C93A7E2B0E0E7E2F0E051
:1015100080818F7D8C93A6E2B0E0E6E2F0E08081EE
:1015200080688C93A6E2B0E0E6E2F0E08081887FFC
:101530008C93A6E2B0E0E6E2F0E08081982FE981AA
:10154000FA8181818770892B8C93A6E2B0E0E6E274
:10155000F0E08081877F8C930F900F900F900F9019
:10156000CF91DF910895DF93CF930F92CDB7DEB780
:101570008983898187708983A7E2B0E0E7E2F0E0A0
:101580008081982F907E8981892B8C93A6E2B0E090
:10159000E6E2F0E0808180648C93E6E2F0E0808116
:1015A000882F90E0807490700097B9F7A6E2B0E0C1
:1015B000E6E2F0E0808180618C93E4E2F0E08081FB
:1015C00091810F90CF91DF910895DF93CF9300D059
:1015D00000D0CDB7DEB789836A838981282F30E0B8
:1015E0003C832B838B819C8181309105D1F02B81B1
:1015F0003C81223031052CF48B819C81009761F075
:101600001EC02B813C812230310581F08B819C8171
:101610008330910581F013C0EAE3F0E08A81808392
:101620000EC0E7E3F0E08A81808309C0E4E3F0E0E4
:101630008A81808304C0E1E3F0E08A8180830F9097
:101640000F900F900F90CF91DF910895DF93CF937C
:10165000CDB7DEB727970FB6F894DEBF0FBECDBF6C
:1016600089836A834B838B81813009F06FC08981C4
:10167000282F30E03F832E838E819F81813091051A
:1016800049F12E813F81223031052CF48E819F81DA
:10169000009761F0D2C02E813F812230310571F177
:1016A0008E819F8183309105E9F1C7C0AAE3B0E044
:1016B000EAE3F0E08081482F8A81282F30E081E042
:1016C00090E0022E02C0880F991F0A94E2F7842B43
:1016D0008C93B3C0A7E3B0E0E7E3F0E08081482F4C
:1016E0008A81282F30E081E090E0022E02C0880F2E
:1016F000991F0A94E2F7842B8C939FC0A4E3B0E077
:10170000E4E3F0E08081482F8A81282F30E081E0F7
:1017100090E0022E02C0880F991F0A94E2F7842BF2
:101720008C938BC0A1E3B0E0E1E3F0E08081482F2F
:101730008A81282F30E081E090E0022E02C0880FDD
:10174000991F0A94E2F7842B8C9377C08B818823AE
:1017500009F073C08981282F30E03D832C838C8170
:101760009D818130910559F12C813D8122303105D7
:101770002CF48C819D81009769F05FC02C813D81A4
:101780002230310589F18C819D818330910509F4E6
:1017900040C053C0AAE3B0E0EAE3F0E08081482F04
:1017A0008A81282F30E081E090E0022E02C0880F6D
:1017B000991F0A94E2F7809584238C933EC0A7E397
:1017C000B0E0E7E3F0E08081482F8A81282F30E005
:1017D00081E090E0022E02C0880F991F0A94E2F780
:1017E000809584238C9329C0A4E3B0E0E4E3F0E087
:1017F0008081482F8A81282F30E081E090E0022EFE
:1018000002C0880F991F0A94E2F7809584238C9375
:1018100014C0A1E3B0E0E1E3F0E08081482F8A81C9
:10182000282F30E081E090E0022E02C0880F991F3F
:101830000A94E2F7809584238C9327960FB6F89448
:10184000DEBF0FBECDBFCF91DF910895DF93CF9361
:1018500000D000D0CDB7DEB789836A838981282F75
:1018600030E03C832B838B819C8181309105D1F0CA
:101870002B813C81223031052CF48B819C81009797
:1018800061F01EC02B813C812230310581F08B81BB
:101890009C818330910581F013C0EBE3F0E08A81F5
:1018A00080830EC0E8E3F0E08A81808309C0E5E32D
:1018B000F0E08A81808304C0E2E3F0E08A818083E3
:1018C0000F900F900F900F90CF91DF910895DF93BD
:1018D000CF93CDB7DEB727970FB6F894DEBF0FBE14
:1018E000CDBF89836A834B838B81813009F06FC0C0
:1018F0008981282F30E03F832E838E819F81813024
:10190000910549F12E813F81223031052CF48E81E1
:101910009F81009761F0D2C02E813F812230310536
:1019200071F18E819F8183309105E9F1C7C0ABE3EE
:10193000B0E0EBE3F0E08081482F8A81282F30E08F
:1019400081E090E0022E02C0880F991F0A94E2F70E
:10195000842B8C93B3C0A8E3B0E0E8E3F0E080818F
:10196000482F8A81282F30E081E090E0022E02C0CB
:10197000880F991F0A94E2F7842B8C939FC0A5E3EC
:10198000B0E0E5E3F0E08081482F8A81282F30E045
:1019900081E090E0022E02C0880F991F0A94E2F7BE
:1019A000842B8C938BC0A2E3B0E0E2E3F0E0808173
:1019B000482F8A81282F30E081E090E0022E02C07B
:1019C000880F991F0A94E2F7842B8C9377C08B8140
:1019D000882309F073C08981282F30E03D832C8350
:1019E0008C819D818130910559F12C813D8122307E
:1019F00031052CF48C819D81009769F05FC02C81AA
:101A00003D812230310589F18C819D8183309105A2
:101A100009F440C053C0ABE3B0E0EBE3F0E08081F9
:101A2000482F8A81282F30E081E090E0022E02C00A
:101A3000880F991F0A94E2F7809584238C933EC007
:101A4000A8E3B0E0E8E3F0E08081482F8A81282F06
:101A500030E081E090E0022E02C0880F991F0A94C6
:101A6000E2F7809584238C9329C0A5E3B0E0E5E3F9
:101A7000F0E08081482F8A81282F30E081E090E0DB
:101A8000022E02C0880F991F0A94E2F780958423E2
:101A90008C9314C0A2E3B0E0E2E3F0E08081482F31
:101AA0008A81282F30E081E090E0022E02C0880F6A
:101AB000991F0A94E2F7809584238C9327960FB69A
:101AC000F894DEBF0FBECDBFCF91DF910895DF93B5
:101AD000CF9300D000D00F92CDB7DEB78A836B834F
:101AE00019828A81282F30E03D832C834C815D81CF
:101AF0004130510541F18C819D818230910534F452
:101B00002C813D812115310561F052C04C815D81F0
:101B10004230510551F18C819D8183309105B9F19D
:101B200047C0E9E3F0E08081282F30E08B81882FE7
:101B300090E0A90102C0559547958A95E2F7CA0140
:101B40008170898335C0E6E3F0E08081282F30E0A2
:101B50008B81882F90E0A90102C0559547958A9501
:101B6000E2F7CA018170898323C0E3E3F0E080815A
:101B7000282F30E08B81882F90E0A90102C0559575
:101B800047958A95E2F7CA018170898311C0E0E325
:101B9000F0E08081282F30E08B81882F90E0A90130
:101BA00002C0559547958A95E2F7CA0181708983ED
:101BB00089810F900F900F900F900F90CF91DF9130
:101BC00008951F920F920FB60F9211242F933F93F7
:101BD0004F935F936F937F938F939F93AF93BF9335
:101BE000EF93FF93DF93CF93CDB7DEB7809178016A
:101BF00090917901009729F0E0917801F0917901B5
:101C00000995CF91DF91FF91EF91BF91AF919F9196
:101C10008F917F916F915F914F913F912F910F9095
:101C20000FBE0F901F901895DF93CF9300D0CDB7C4
:101C3000DEB79A83898383E066E040E00E94260B4A
:101C4000AFE4B0E0EFE4F0E0808188608C93AFE433
:101C5000B0E0EFE4F0E0808184608C93AEE4B0E02B
:101C6000EEE4F0E08081982F987FE981FA8180810D
:101C7000892B8C93AEE4B0E0EEE4F0E08081282F75
:101C80002F7BE981FA818181882F90E0002496954D
:101C900087950794969587950794982F802D822B8A
:101CA0008C93ECE4F0E011821082E6E4F0E0118223
:101CB0001082A9E5B0E0E9E5F0E0808180628C93D4
:101CC0000F900F90CF91DF910895DF93CF9300D0C5
:101CD000CDB7DEB79A83898389819A819093790100
:101CE000809378010F900F90CF91DF910895DF934B
:101CF000CF930F92CDB7DEB78983AEE4B0E0EEE4C8
:101D0000F0E08081282F2F7B8981882F90E00024AC
:101D1000969587950794969587950794982F802D8B
:101D2000822B8C930F90CF91DF910895DF93CF9307
:101D3000CDB7DEB7E6E4F0E080819181CF91DF910D
:101D40000895DF93CF93CDB7DEB7ECE4F0E01182D6
:101D50001082CF91DF910895DF93CF93CDB7DEB797
:101D6000EFE4F0E01082EEE4F0E01082ECE4F0E06A
:101D700011821082E6E4F0E011821082A9E5B0E061
:101D8000E9E5F0E080818F7D8C93109279011092CB
:101D90007801CF91DF910895DF93CF93CDB7DEB770
:101DA00081E063E041E00E94260BA3E5B0E0E3E5BB
:101DB000F0E0808180648C93A3E5B0E0E3E5F0E09F
:101DC000808188608C93A3E5B0E0E3E5F0E080815A
:101DD00080628C93A3E5B0E0E3E5F0E080818F7E44
:101DE0008C93ECE5F0E01082A3E5B0E0E3E5F0E0F1
:101DF0008081887F8C93CF91DF9108950F931F93FB
:101E0000DF93CF930F92CDB7DEB789830CE510E057
:101E10008981882F90E0A0E0B0E02FEF30E040E033
:101E200050E0BC01CD010E943E15DC01CB0124E64F
:101E300030E040E050E0BC01CD010E945D15DA01C8
:101E4000C901F8018083A3E5B0E0E3E5F0E080811B
:101E5000887F83608C930F90CF91DF911F910F91BA
:101E60000895DF93CF93CDB7DEB7A3E5B0E0E3E508
:101E7000F0E08081887F8C93CF91DF9108950F935C
:101E80001F93DF93CF9300D0CDB7DEB79A838983BA
:101E9000A1E2B0E0E1E2F0E080818E7F8C93A1E2EC
:101EA000B0E0E1E2F0E080818D7F8C9300E210E011
:101EB000E981FA8181819281A381B48128EE33E0A6
:101EC00040E050E0BC01CD010E943E159B01AC01F9
:101ED00080E092E1AAE7B0E0BC01CD010E945D156F
:101EE000DA01C9014097A109B109B695A79597955F
:101EF0008795F8018083A2E2B0E0E981FA818081D0
:101F0000880F8C93A6E5B0E0E6E5F0E08081846080
:101F10008C930F900F90CF91DF911F910F910895A7
:101F2000DF93CF93CDB7DEB7A6E5B0E0E6E5F0E00E
:101F3000808180688C93A6E5B0E0E6E5F0E08081E2
:101F400080628C93A6E5B0E0E6E5F0E080818460F5
:101F50008C93E6E5F0E080818823DCF7CF91DF9178
:101F60000895DF93CF93CDB7DEB7A6E5B0E0E6E501
:101F7000F0E0808180688C93A6E5B0E0E6E5F0E0D3
:101F8000808180618C93A6E5B0E0E6E5F0E0808199
:101F900084608C93CF91DF910895DF93CF930F925C
:101FA000CDB7DEB78983E3E2F0E089818083A6E5DF
:101FB000B0E0E6E5F0E0808180688C93A6E5B0E0D3
:101FC000E6E5F0E0808184608C93E6E5F0E08081D6
:101FD0008823DCF70F90CF91DF910895DF93CF93A3
:101FE000CDB7DEB7A6E5B0E0E6E5F0E08081806839
:101FF0008C93A6E5B0E0E6E5F0E0808184608C9308
:10200000A6E5B0E0E6E5F0E0808180648C93E6E54B
:10201000F0E080818823DCF7E3E2F0E08081CF917B
:10202000DF910895DF93CF93CDB7DEB7A6E5B0E09B
:10203000E6E5F0E0808180688C93A6E5B0E0E6E517
:10204000F0E0808184608C93E6E5F0E08081882375
:10205000DCF7E3E2F0E08081CF91DF910895DF9338
:10206000CF93CDB7DEB7E1E2F0E08081887FCF91FA
:10207000DF910895DF93CF93CDB7DEB728970FB6E2
:10208000F894DEBF0FBECDBF9C838B831A8219826A
:10209000ABE2B0E0EBE2F0E0808182608C93EAE2B8
:1020A000F0E01082AAE2B0E0EAE2F0E08081806134
:1020B0008C93AAE2B0E0EAE2F0E0808188608C9341
:1020C000EB81FC818081843041F4AAE2B0E0EAE255
:1020D000F0E0808184608C9307C0AAE2B0E0EAE27D
:1020E000F0E080818B7F8C93E0E4F0E01082A0E44C
:1020F000B0E0E0E4F0E0808180688C93EB81FC81CB
:102100008081282F30E038872F838F819885823017
:102110009105C1F12F8138852330310554F48F8129
:102120009885009789F02F81388521303105D9F0C5
:1021300055C08F8198858330910599F12F8138851D
:1021400024303105E9F14AC0A0E4B0E0E0E4F0E079
:1021500080818D7F8C93A0E4B0E0E0E4F0E08081AA
:102160008B7F8C933BC0A0E4B0E0E0E4F0E08081A2
:1021700082608C93A0E4B0E0E0E4F0E080818B7FAB
:102180008C932CC0A0E4B0E0E0E4F0E080818D7F8F
:102190008C93A0E4B0E0E0E4F0E0808184608C9374
:1021A0001DC0A0E4B0E0E0E4F0E0808182608C93A8
:1021B000A0E4B0E0E0E4F0E0808184608C930EC0A5
:1021C000A0E4B0E0E0E4F0E0808182608C93A0E4E1
:1021D000B0E0E0E4F0E0808184608C93EB81FC81EE
:1021E0008181282F30E03E832D838D819E81823036
:1021F0009105C1F02D813E812330310511F18D8192
:102200009E81009761F5A0E4B0E0E0E4F0E0808119
:102210008F7E8C93A0E4B0E0E0E4F0E080818F7DDD
:102220008C931DC0A0E4B0E0E0E4F0E080818F7EFC
:102230008C93A0E4B0E0E0E4F0E0808180628C93D5
:102240000EC0A0E4B0E0E0E4F0E0808180618C9317
:10225000A0E4B0E0E0E4F0E0808180628C93EB8168
:10226000FC818281813041F4A0E4B0E0E0E4F0E060
:10227000808188608C9307C0A0E4B0E0E0E4F0E0E7
:102280008081877F8C93EB81FC8183819481A58100
:10229000B681880F991FAA1FBB1F880F991FAA1FFD
:1022A000BB1F880F991FAA1FBB1F9C01AD0180E0B7
:1022B00092E1AAE7B0E0BC01CD010E945D15DA0110
:1022C000C90101979A838983E0E4F0E089819A81CA
:1022D000892F99278083E9E2F0E08981808328961D
:1022E0000FB6F894DEBF0FBECDBFCF91DF9108953A
:1022F000DF93CF930F92CDB7DEB78983EBE2F0E0A7
:102300008081882F90E0807290700097B9F3ECE2A2
:10231000F0E0898180830F90CF91DF910895DF9362
:10232000CF93CDB7DEB7EBE2F0E080818823DCF716
:10233000ECE2F0E08081CF91DF910895DF93CF93BD
:1023400000D00F92CDB7DEB79B838A8319820EC06F
:102350008981282F30E08A819B81FC01E20FF31FE5
:1023600080810E94781189818F5F89838981282FDC
:1023700030E08A819B81FC01E20FF31F808188237A
:1023800039F70F900F900F90CF91DF9108950F9331
:102390001F93DF93CF9300D00F92CDB7DEB79B830F
:1023A0008A8319828981282F30E08A819B818C0160
:1023B000020F131F0E948F11F80180830FC08981C3
:1023C0008F5F89838981282F30E08A819B818C01EE
:1023D000020F131F0E948F11F80180838981282F1B
:1023E00030E08A819B81FC01E20FF31F8081833200
:1023F00031F78981282F30E08A819B81FC01E20F2F
:10240000F31F10820F900F900F90CF91DF911F91CB
:102410000F910895DF93CF93CDB7DEB780E062E0F0
:1024200041E00E94260B80E063E041E00E94260B21
:1024300081E063E041E00E94260B80E062E040E042
:102440000E94670C80E063E040E00E94670C80E03F
:1024500066E041E00E94260B80E067E041E00E94D8
:10246000260B81E063E041E00E94260B80E066E0FD
:1024700040E00E94670C80E067E040E00E94670C4B
:1024800081E063E040E00E94670CCF91DF91089506
:10249000DF93CF93CDB7DEB727970FB6F894DEBFA3
:1024A0000FBECDBF89836A834B838B81853610F045
:1024B00084E68B838981882309F04BC08A81282F89
:1024C00030E03F832E838E819F8181309105B9F06A
:1024D0002E813F812230310501F18E819F8100974D
:1024E00051F580E062E040E00E94670C80E063E02C
:1024F00040E00E94670C80E00E94FE0E80C080E0F9
:1025000062E041E00E94670C80E063E040E00E94EE
:10251000670C8B810E94FE0E72C080E062E040E09A
:102520000E94670C80E063E041E00E94670C8B81B1
:102530000E94FE0E64C080E062E040E00E94670CF2
:1025400080E063E040E00E94670C80E00E94FE0EA5
:1025500056C08981813009F052C08A81282F30E02D
:102560003D832C838C819D8181309105C9F02C8124
:102570003D812230310521F18C819D81009781F5CB
:1025800080E066E040E00E94670C80E067E040E0A9
:102590000E94670C81E063E040E00E94670C2FC05E
:1025A00080E066E041E00E94670C80E067E040E088
:1025B0000E94670C81E063E041E00E94670C1FC04D
:1025C00080E066E040E00E94670C80E067E041E068
:1025D0000E94670C81E063E041E00E94670C0FC03D
:1025E00080E066E040E00E94670C80E067E040E049
:1025F0000E94670C81E063E040E00E94670C279630
:102600000FB6F894DEBF0FBECDBFCF91DF91089516
:10261000DF93CF9300D00F92CDB7DEB780E00E945A
:10262000B30A9B838A838A819B81CC01A0E0B0E0BE
:10263000BC01CD010E94A904DC01CB01BC01CD018C
:102640002AE037ED43E250E40E941F02DC01CB0197
:10265000BC01CD0120E030E048EC52E40E941F02B2
:10266000DC01CB01BC01CD0120E030EC4FE754E4AC
:102670000E941903DC01CB01BC01CD010E9449007D
:10268000DC01CB01898389810F900F900F90CF914E
:10269000DF910895DF93CF9300D0CDB7DEB782E00E
:1026A000898381E08A83CE0101960E94140E8AE715
:1026B00094E10E94650E83E067E041E00E94260BF2
:1026C00083E066E040E00E94260B0F900F90CF91D0
:1026D000DF910895DF93CF93CDB7DEB768970FB63C
:1026E000F894DEBF0FBECDBF83E067E041E00E94FB
:1026F000670C80E090E0A0E2B1E48D8B9E8BAF8B05
:10270000B88F6D897E898F89988D2BEA3AEA4AE2E3
:1027100050E40E941F02DC01CB01898B9A8BAB8BAA
:10272000BC8B69897A898B899C8920E030E040E8FC
:102730005FE30E94250488231CF481E0888B91C00C
:1027400069897A898B899C8920E030E04FE753E4DE
:102750000E94C50318160CF07BC06D897E898F8995
:10276000988D20E030E04AE754E40E941903DC0130
:10277000CB018C879D87AE87BF876C857D858E85D5
:102780009F8520E030E04AEF54E40E941F02DC0104
:10279000CB0188879987AA87BB87688579858A85D1
:1027A0009B8520E030E040E85FE30E942504882319
:1027B0002CF481E090E09F838E833FC0688579850B
:1027C0008A859B8520E03FEF4FE757E40E94C503D1
:1027D00018164CF56C857D858E859F8520E030E050
:1027E00040E251E40E941F02DC01CB01BC01CD019B
:1027F0000E944900DC01CB019F838E830FC088ECCF
:1028000090E09D838C838C819D810197F1F79D835E
:102810008C838E819F8101979F838E838E819F8180
:10282000009769F724C0688579858A859B850E9411
:102830004900DC01CB019F838E838E819F819B8326
:102840008A838A819B810197F1F79B838A830FC0DA
:1028500069897A898B899C890E944900DC01CB01B6
:10286000888B8889898389818A95F1F7898383E0B8
:1028700067E040E00E94670C68960FB6F894DEBFF0
:102880000FBECDBFCF91DF910895DF93CF9300D0DE
:10289000CDB7DEB71A82198210927A010E946A13AC
:1028A00080917A018230E0F380917B0190917C01EC
:1028B000CC01A0E0B0E0BC01CD010E94A904DC0184
:1028C000CB01BC01CD0128E23EE74CE85CE30E946D
:1028D0001F02DC01CB01BC01CD010E944900DC01DB
:1028E000CB019A83898389819A810F900F90CF9130
:1028F000DF910895DF93CF93CDB7DEB780917A0152
:102900008F5F80937A0180917A01813031F40E9447
:10291000A10E80E00E94770E0DC080917A01823076
:1029200049F40E94960E90937C0180937B0181E094
:102930000E94770ECF91DF910895DF93CF9300D05F
:1029400000D0CDB7DEB79A8389836B830E94900F46
:102950000E942F10883011F01C8228C089819A8132
:1029600080709770880F892F881F990B9195806AC6
:102970000E94CD0F0E942F10883111F01C8216C0CA
:1029800089810E94CD0F0E942F10883211F01C8285
:102990000DC08B810E94CD0F0E942F10883211F044
:1029A0001C8204C00E94B10F81E08C838C810F9047
:1029B0000F900F900F90CF91DF910895DF93CF93F9
:1029C00000D000D00F92CDB7DEB79A8389837C8385
:1029D0006B830E94900F0E942F10883011F01D828F
:1029E00044C089819A8180709770880F892F881FD1
:1029F000990B9195806A0E94CD0F0E942F1088310B
:102A000011F01D8232C089810E94CD0F0E942F10CB
:102A1000883211F01D8229C00E94900F0E942F1051
:102A2000803111F01D8221C089819A818070977058
:102A3000880F892F881F990B9195816A0E94CD0F6D
:102A40000E942F10803411F01D820FC00E941210BE
:102A5000EB81FC8180830E942F10883511F01D824C
:102A600004C00E94B10F81E08D838D810F900F9083
:102A70000F900F900F90CF91DF910895629FD0013A
:102A8000739FF001829FE00DF11D649FE00DF11D29
:102A9000929FF00D839FF00D749FF00D659FF00DD8
:102AA0009927729FB00DE11DF91F639FB00DE11DC5
:102AB000F91FBD01CF0111240895A1E21A2EAA1B0E
:102AC000BB1BFD010DC0AA1FBB1FEE1FFF1FA217DE
:102AD000B307E407F50720F0A21BB30BE40BF50BDB
:102AE000661F771F881F991F1A9469F76095709564
:102AF000809590959B01AC01BD01CF0108952F9267
:102B00003F924F925F926F927F928F929F92AF927D
:102B1000BF92CF92DF92EF92FF920F931F93CF93CA
:102B2000DF93CDB7DEB7CA1BDB0B0FB6F894DEBF61
:102B30000FBECDBF09942A88398848885F846E8487
:102B40007D848C849B84AA84B984C884DF80EE80D1
:102B5000FD800C811B81AA81B981CE0FD11D0FB6DA
:102B6000F894DEBF0FBECDBFED010895F894FFCFFE
:102B70000000000000000000000102020303030344
:102B800004040404040404040505050505050505FD
:102B900005050505050505050606060606060606DD
:102BA00006060606060606060606060606060606C5
:102BB00006060606060606060707070707070707AD
:102BC0000707070707070707070707070707070795
:102BD0000707070707070707070707070707070785
:102BE0000707070707070707070707070707070775
:102BF000070707070707070708080808080808085D
:102C00000808080808080808080808080808080844
:102C10000808080808080808080808080808080834
:102C20000808080808080808080808080808080824
:102C30000808080808080808080808080808080814
:102C40000808080808080808080808080808080804
:102C500008080808080808080808080808080808F4
:102C600008080808080808080808080808080808E4
:102C7000080808080808080801A0860100030000E9
:042C800080250000AB
:00000001FF
